{
  "abi": [
    {
      "inputs": [
        {
          "internalType": "address",
          "name": "_tokenAddress",
          "type": "address"
        },
        {
          "internalType": "uint8",
          "name": "_decimals",
          "type": "uint8"
        }
      ],
      "stateMutability": "nonpayable",
      "type": "constructor"
    },
    {
      "inputs": [],
      "name": "InsufficientTokenBalance",
      "type": "error"
    },
    {
      "inputs": [],
      "name": "InsufficientTomBalance",
      "type": "error"
    },
    {
      "inputs": [],
      "name": "ItemSoldOut",
      "type": "error"
    },
    {
      "inputs": [
        {
          "internalType": "uint256",
          "name": "itemId",
          "type": "uint256"
        }
      ],
      "name": "NotListed",
      "type": "error"
    },
    {
      "inputs": [],
      "name": "PriceMustBeAboveZero",
      "type": "error"
    },
    {
      "inputs": [
        {
          "internalType": "address",
          "name": "user",
          "type": "address"
        }
      ],
      "name": "UserAlreadyExists",
      "type": "error"
    },
    {
      "inputs": [
        {
          "internalType": "address",
          "name": "user",
          "type": "address"
        }
      ],
      "name": "UserDoesNotExist",
      "type": "error"
    },
    {
      "anonymous": false,
      "inputs": [
        {
          "indexed": true,
          "internalType": "address",
          "name": "seller",
          "type": "address"
        },
        {
          "indexed": true,
          "internalType": "uint256",
          "name": "itemId",
          "type": "uint256"
        }
      ],
      "name": "ItemCanceled",
      "type": "event"
    },
    {
      "anonymous": false,
      "inputs": [
        {
          "indexed": true,
          "internalType": "address",
          "name": "seller",
          "type": "address"
        },
        {
          "indexed": true,
          "internalType": "uint256",
          "name": "itemId",
          "type": "uint256"
        },
        {
          "indexed": false,
          "internalType": "string",
          "name": "name",
          "type": "string"
        },
        {
          "indexed": false,
          "internalType": "string",
          "name": "image",
          "type": "string"
        },
        {
          "indexed": false,
          "internalType": "string",
          "name": "description",
          "type": "string"
        },
        {
          "indexed": false,
          "internalType": "uint256",
          "name": "price",
          "type": "uint256"
        },
        {
          "indexed": false,
          "internalType": "uint256",
          "name": "quantity",
          "type": "uint256"
        },
        {
          "indexed": false,
          "internalType": "uint256",
          "name": "postingFee",
          "type": "uint256"
        }
      ],
      "name": "ItemListed",
      "type": "event"
    },
    {
      "anonymous": false,
      "inputs": [
        {
          "indexed": true,
          "internalType": "address",
          "name": "seller",
          "type": "address"
        },
        {
          "indexed": true,
          "internalType": "uint256",
          "name": "itemId",
          "type": "uint256"
        },
        {
          "indexed": false,
          "internalType": "string",
          "name": "name",
          "type": "string"
        },
        {
          "indexed": false,
          "internalType": "string",
          "name": "image",
          "type": "string"
        },
        {
          "indexed": false,
          "internalType": "string",
          "name": "description",
          "type": "string"
        },
        {
          "indexed": false,
          "internalType": "uint256",
          "name": "price",
          "type": "uint256"
        },
        {
          "indexed": false,
          "internalType": "uint256",
          "name": "quantity",
          "type": "uint256"
        },
        {
          "indexed": false,
          "internalType": "uint256",
          "name": "postingFee",
          "type": "uint256"
        }
      ],
      "name": "ItemUpdated",
      "type": "event"
    },
    {
      "anonymous": false,
      "inputs": [
        {
          "indexed": true,
          "internalType": "address",
          "name": "previousOwner",
          "type": "address"
        },
        {
          "indexed": true,
          "internalType": "address",
          "name": "newOwner",
          "type": "address"
        }
      ],
      "name": "OwnershipTransferred",
      "type": "event"
    },
    {
      "anonymous": false,
      "inputs": [
        {
          "indexed": true,
          "internalType": "address",
          "name": "user",
          "type": "address"
        },
        {
          "indexed": false,
          "internalType": "uint256",
          "name": "rewards",
          "type": "uint256"
        }
      ],
      "name": "RewardsClaimed",
      "type": "event"
    },
    {
      "anonymous": false,
      "inputs": [
        {
          "indexed": true,
          "internalType": "address",
          "name": "buyer",
          "type": "address"
        },
        {
          "indexed": false,
          "internalType": "uint256",
          "name": "amount",
          "type": "uint256"
        }
      ],
      "name": "TokenBought",
      "type": "event"
    },
    {
      "anonymous": false,
      "inputs": [
        {
          "indexed": true,
          "internalType": "address",
          "name": "user",
          "type": "address"
        }
      ],
      "name": "userRegistered",
      "type": "event"
    },
    {
      "inputs": [
        {
          "internalType": "address",
          "name": "referedBy",
          "type": "address"
        }
      ],
      "name": "UseReferalLink",
      "outputs": [],
      "stateMutability": "nonpayable",
      "type": "function"
    },
    {
      "inputs": [
        {
          "internalType": "address",
          "name": "_tomAddress",
          "type": "address"
        },
        {
          "internalType": "address",
          "name": "_escrowAddress",
          "type": "address"
        }
      ],
      "name": "activate",
      "outputs": [],
      "stateMutability": "nonpayable",
      "type": "function"
    },
    {
      "inputs": [
        {
          "internalType": "uint256",
          "name": "tokenAmount",
          "type": "uint256"
        }
      ],
      "name": "buyTOM",
      "outputs": [],
      "stateMutability": "nonpayable",
      "type": "function"
    },
    {
      "inputs": [
        {
          "internalType": "uint256",
          "name": "price",
          "type": "uint256"
        },
        {
          "internalType": "uint256",
          "name": "quantity",
          "type": "uint256"
        }
      ],
      "name": "calculatePostingFee",
      "outputs": [
        {
          "internalType": "uint256",
          "name": "postingFee",
          "type": "uint256"
        }
      ],
      "stateMutability": "view",
      "type": "function"
    },
    {
      "inputs": [
        {
          "internalType": "uint256",
          "name": "tokenAmount",
          "type": "uint256"
        }
      ],
      "name": "calculateTOMAmount",
      "outputs": [
        {
          "internalType": "uint256",
          "name": "",
          "type": "uint256"
        }
      ],
      "stateMutability": "view",
      "type": "function"
    },
    {
      "inputs": [
        {
          "internalType": "uint256",
          "name": "itemId",
          "type": "uint256"
        }
      ],
      "name": "cancelListing",
      "outputs": [],
      "stateMutability": "nonpayable",
      "type": "function"
    },
    {
      "inputs": [
        {
          "internalType": "uint256",
          "name": "orderId",
          "type": "uint256"
        }
      ],
      "name": "cancelOrder",
      "outputs": [],
      "stateMutability": "nonpayable",
      "type": "function"
    },
    {
      "inputs": [],
      "name": "claimRewards",
      "outputs": [],
      "stateMutability": "nonpayable",
      "type": "function"
    },
    {
      "inputs": [
        {
          "internalType": "uint256",
          "name": "orderId",
          "type": "uint256"
        }
      ],
      "name": "confirmDelivery",
      "outputs": [],
      "stateMutability": "nonpayable",
      "type": "function"
    },
    {
      "inputs": [],
      "name": "getEscrowAddress",
      "outputs": [
        {
          "internalType": "address",
          "name": "",
          "type": "address"
        }
      ],
      "stateMutability": "view",
      "type": "function"
    },
    {
      "inputs": [
        {
          "internalType": "uint256",
          "name": "itemId",
          "type": "uint256"
        }
      ],
      "name": "getItem",
      "outputs": [
        {
          "internalType": "string",
          "name": "",
          "type": "string"
        },
        {
          "internalType": "string",
          "name": "",
          "type": "string"
        },
        {
          "internalType": "string",
          "name": "",
          "type": "string"
        },
        {
          "internalType": "uint256",
          "name": "",
          "type": "uint256"
        },
        {
          "internalType": "uint256",
          "name": "",
          "type": "uint256"
        },
        {
          "internalType": "uint256",
          "name": "",
          "type": "uint256"
        },
        {
          "internalType": "address",
          "name": "",
          "type": "address"
        }
      ],
      "stateMutability": "view",
      "type": "function"
    },
    {
      "inputs": [
        {
          "internalType": "address",
          "name": "user",
          "type": "address"
        }
      ],
      "name": "getSpentAmount",
      "outputs": [
        {
          "internalType": "uint256",
          "name": "",
          "type": "uint256"
        }
      ],
      "stateMutability": "view",
      "type": "function"
    },
    {
      "inputs": [],
      "name": "getTokenAddress",
      "outputs": [
        {
          "internalType": "address",
          "name": "",
          "type": "address"
        }
      ],
      "stateMutability": "view",
      "type": "function"
    },
    {
      "inputs": [],
      "name": "getTomAddress",
      "outputs": [
        {
          "internalType": "address",
          "name": "",
          "type": "address"
        }
      ],
      "stateMutability": "view",
      "type": "function"
    },
    {
      "inputs": [
        {
          "internalType": "uint256",
          "name": "key",
          "type": "uint256"
        }
      ],
      "name": "getUser",
      "outputs": [
        {
          "internalType": "address",
          "name": "",
          "type": "address"
        }
      ],
      "stateMutability": "view",
      "type": "function"
    },
    {
      "inputs": [
        {
          "internalType": "string",
          "name": "name",
          "type": "string"
        },
        {
          "internalType": "string",
          "name": "image",
          "type": "string"
        },
        {
          "internalType": "string",
          "name": "description",
          "type": "string"
        },
        {
          "internalType": "uint256",
          "name": "price",
          "type": "uint256"
        },
        {
          "internalType": "uint256",
          "name": "quantity",
          "type": "uint256"
        }
      ],
      "name": "listItem",
      "outputs": [],
      "stateMutability": "nonpayable",
      "type": "function"
    },
    {
      "inputs": [
        {
          "internalType": "uint256",
          "name": "itemId",
          "type": "uint256"
        },
        {
          "internalType": "uint256",
          "name": "quantity",
          "type": "uint256"
        }
      ],
      "name": "orderItem",
      "outputs": [
        {
          "internalType": "uint256",
          "name": "",
          "type": "uint256"
        }
      ],
      "stateMutability": "nonpayable",
      "type": "function"
    },
    {
      "inputs": [],
      "name": "owner",
      "outputs": [
        {
          "internalType": "address",
          "name": "",
          "type": "address"
        }
      ],
      "stateMutability": "view",
      "type": "function"
    },
    {
      "inputs": [
        {
          "internalType": "address",
          "name": "user",
          "type": "address"
        }
      ],
      "name": "registerUser",
      "outputs": [],
      "stateMutability": "nonpayable",
      "type": "function"
    },
    {
      "inputs": [],
      "name": "renounceOwnership",
      "outputs": [],
      "stateMutability": "nonpayable",
      "type": "function"
    },
    {
      "inputs": [
        {
          "internalType": "address",
          "name": "newOwner",
          "type": "address"
        }
      ],
      "name": "transferOwnership",
      "outputs": [],
      "stateMutability": "nonpayable",
      "type": "function"
    },
    {
      "inputs": [
        {
          "internalType": "uint256",
          "name": "itemId",
          "type": "uint256"
        },
        {
          "internalType": "string",
          "name": "name",
          "type": "string"
        },
        {
          "internalType": "string",
          "name": "image",
          "type": "string"
        },
        {
          "internalType": "string",
          "name": "description",
          "type": "string"
        },
        {
          "internalType": "uint256",
          "name": "price",
          "type": "uint256"
        },
        {
          "internalType": "uint256",
          "name": "quantity",
          "type": "uint256"
        }
      ],
      "name": "updateItem",
      "outputs": [],
      "stateMutability": "nonpayable",
      "type": "function"
    }
  ],
  "bytecode": {
    "object": "0x60a06040523480156200001157600080fd5b5060405162002f6b38038062002f6b8339810160408190526200003491620000c0565b6200003f3362000070565b60018055600480546001600160a01b0319166001600160a01b03939093169290921790915560ff166080526200010f565b600080546001600160a01b038381166001600160a01b0319831681178455604051919092169283917f8be0079c531659141344cd1fd0a4f28419497f9722a3daafe3b4186f6b6457e09190a35050565b60008060408385031215620000d457600080fd5b82516001600160a01b0381168114620000ec57600080fd5b602084015190925060ff811681146200010457600080fd5b809150509250929050565b608051612e396200013260003960008181610dc701526115ae0152612e396000f3fe608060405234801561001057600080fd5b50600436106101425760003560e01c8063715018a6116100b85780639555c4db1161007c5780639555c4db146102ab578063b0467deb146102be578063ce16dcc8146102d1578063f2fde38b146102e4578063f75b59f4146102f7578063fd84cb971461030a57600080fd5b8063715018a61461025b5780637f21a48a1461026357806386664124146102765780638da5cb5b14610287578063918e3b4c1461029857600080fd5b80633129e7731161010a5780633129e773146101bd578063372500ab146101e357806347f5546a146101eb5780634e10efbd146101fe578063514fcac7146102355780636557b07d1461024857600080fd5b806310fe9ae814610147578063122fd48a146101715780631627eaf2146101825780632199d5cd14610197578063305a67a8146101aa575b600080fd5b6004546001600160a01b03165b6040516001600160a01b0390911681526020015b60405180910390f35b6003546001600160a01b0316610154565b610195610190366004612696565b61031d565b005b6101956101a5366004612745565b61062e565b6101956101b8366004612762565b61073e565b6101d06101cb366004612762565b610b12565b60405161016897969594939291906127c1565b610195610d1b565b6101956101f9366004612762565b610f2b565b61022761020c366004612745565b6001600160a01b031660009081526006602052604090205490565b604051908152602001610168565b610195610243366004612762565b6110fa565b610195610256366004612745565b6112cb565b61019561156f565b61022761027136600461282a565b611583565b6002546001600160a01b0316610154565b6000546001600160a01b0316610154565b6102276102a6366004612762565b6115a7565b6101956102b936600461284c565b61167b565b6101546102cc366004612762565b6116b1565b6102276102df36600461282a565b6116e1565b6101956102f2366004612745565b611c54565b610195610305366004612885565b611ccd565b610195610318366004612762565b6122fe565b60075433906000805b8281101561037e57836001600160a01b03166007828154811061034b5761034b612929565b6000918252602090912001546001600160a01b03160361036e576001915061037e565b61037781612955565b9050610326565b508015156000036103b257604051631efbf66f60e01b81526001600160a01b03841660048201526024015b60405180910390fd5b60006103be8686611583565b6002546040516370a0823160e01b815233600482015291925082916001600160a01b03909116906370a0823190602401602060405180830381865afa15801561040b573d6000803e3d6000fd5b505050506040513d601f19601f8201168201806040525081019061042f919061296e565b101561044e576040516366881c2f60e01b815260040160405180910390fd5b6000861161046f5760405163e1abbfc560e01b815260040160405180910390fd5b600a81101561047c5750600a5b6002546040516323b872dd60e01b8152336004820152306024820152604481018390526001600160a01b03909116906323b872dd906064016020604051808303816000875af11580156104d3573d6000803e3d6000fd5b505050506040513d601f19601f820116820180604052508101906104f79190612987565b506040805160e0810182528a8152602081018a9052908101889052606081018790526080810186905260a081018290523360c0820152600061053860055490565b60008181526008602052604090208351919250839181906105599082612a31565b506020820151600182019061056e9082612a31565b50604082015160028201906105839082612a31565b50606082015160038201556080820151600482015560a082015160058083019190915560c090920151600690910180546001600160a01b0319166001600160a01b039092169190911790558054600101905580336001600160a01b03167f5a4cc338d4584a51165f295f71e3a83c61557245edfbeae1c22988058d4236d08d8d8d8d8d8a60405161061996959493929190612af1565b60405180910390a35050505050505050505050565b600754819060005b818110156106a957826001600160a01b03166007828154811061065b5761065b612929565b6000918252602090912001546001600160a01b031603610699576040516308fb92eb60e21b81526001600160a01b03841660048201526024016103a9565b6106a281612955565b9050610636565b50604080516020808201835260008083526001600160a01b03871680825260069092528381209251909255600780546001810182559083527fa66cc928b5edb82af9bd49922954155ab7b0942694bea4ce44661d9a8736c6880180546001600160a01b0319168217905591517fbccbc36cc6dac185f9905c12b69a310c4d0b82bdfbc3bbbb8e3d2ff33c8176b09190a2505050565b60075433906000805b8281101561079f57836001600160a01b03166007828154811061076c5761076c612929565b6000918252602090912001546001600160a01b03160361078f576001915061079f565b61079881612955565b9050610747565b508015156000036107ce57604051631efbf66f60e01b81526001600160a01b03841660048201526024016103a9565b836000600860008381526020019081526020016000206040518060e00160405290816000820180546107ff906129a9565b80601f016020809104026020016040519081016040528092919081815260200182805461082b906129a9565b80156108785780601f1061084d57610100808354040283529160200191610878565b820191906000526020600020905b81548152906001019060200180831161085b57829003601f168201915b50505050508152602001600182018054610891906129a9565b80601f01602080910402602001604051908101604052809291908181526020018280546108bd906129a9565b801561090a5780601f106108df5761010080835404028352916020019161090a565b820191906000526020600020905b8154815290600101906020018083116108ed57829003601f168201915b50505050508152602001600282018054610923906129a9565b80601f016020809104026020016040519081016040528092919081815260200182805461094f906129a9565b801561099c5780601f106109715761010080835404028352916020019161099c565b820191906000526020600020905b81548152906001019060200180831161097f57829003601f168201915b5050509183525050600382015460208201526004820154604082015260058201546060808301919091526006909201546001600160a01b0316608090910152810151909150610a015760405163068bb67560e51b8152600481018390526024016103a9565b6000868152600860205260409020600601546001600160a01b0316331480610a3357506000546001600160a01b031633145b610a7f5760405162461bcd60e51b815260206004820152601e60248201527f43616c6c6572206d7573742062652053656c6c6572206f72204f776e6572000060448201526064016103a9565b600086815260086020526040812090610a9882826125a5565b610aa66001830160006125a5565b610ab46002830160006125a5565b506000600382018190556004820181905560058201819055600690910180546001600160a01b0319169055604051879133917ff86e54241e209ee4b38db8e64af9614b083d18f23c32f3293c8a87c6b8bf89439190a3505050505050565b600081815260086020526040812060038101546004820154600583015460068401548454606096879687969195869586958695939460018601946002870194919391926001600160a01b0316908790610b6a906129a9565b80601f0160208091040260200160405190810160405280929190818152602001828054610b96906129a9565b8015610be35780601f10610bb857610100808354040283529160200191610be3565b820191906000526020600020905b815481529060010190602001808311610bc657829003601f168201915b50505050509650858054610bf6906129a9565b80601f0160208091040260200160405190810160405280929190818152602001828054610c22906129a9565b8015610c6f5780601f10610c4457610100808354040283529160200191610c6f565b820191906000526020600020905b815481529060010190602001808311610c5257829003601f168201915b50505050509550848054610c82906129a9565b80601f0160208091040260200160405190810160405280929190818152602001828054610cae906129a9565b8015610cfb5780601f10610cd057610100808354040283529160200191610cfb565b820191906000526020600020905b815481529060010190602001808311610cde57829003601f168201915b505050505094509650965096509650965096509650919395979092949650565b60075433906000805b82811015610d7c57836001600160a01b031660078281548110610d4957610d49612929565b6000918252602090912001546001600160a01b031603610d6c5760019150610d7c565b610d7581612955565b9050610d24565b50801515600003610dab57604051631efbf66f60e01b81526001600160a01b03841660048201526024016103a9565b610db36124a2565b336000908152600660205260409020610ded7f0000000000000000000000000000000000000000000000000000000000000000600a612c2d565b610df9906101f4612c3c565b81541015610e495760405162461bcd60e51b815260206004820152601c60248201527f4e6f7420656c696769626c6520666f722072657761726473207965740000000060448201526064016103a9565b6000610e6b606483600001546007610e619190612c3c565b6102a69190612c53565b60025460405163a9059cbb60e01b8152336004820152602481018390529192506001600160a01b03169063a9059cbb906044016020604051808303816000875af1158015610ebd573d6000803e3d6000fd5b505050506040513d601f19601f82011682018060405250810190610ee19190612987565b506000825560405181815233907ffc30cddea38e2bf4d6ea7d3f9ed3b6ad7f176419f4963bd81318067a4aee73fe9060200160405180910390a25050610f2660018055565b505050565b60075433906000805b82811015610f8c57836001600160a01b031660078281548110610f5957610f59612929565b6000918252602090912001546001600160a01b031603610f7c5760019150610f8c565b610f8581612955565b9050610f34565b50801515600003610fbb57604051631efbf66f60e01b81526001600160a01b03841660048201526024016103a9565b6000610fc6856115a7565b600480546040516323b872dd60e01b81523392810192909252306024830152604482018890529192506001600160a01b03909116906323b872dd906064016020604051808303816000875af1158015611023573d6000803e3d6000fd5b505050506040513d601f19601f820116820180604052508101906110479190612987565b5060025460405163a9059cbb60e01b8152336004820152602481018390526001600160a01b039091169063a9059cbb906044016020604051808303816000875af1158015611099573d6000803e3d6000fd5b505050506040513d601f19601f820116820180604052508101906110bd9190612987565b5060405181815233907fa3a187cfc249a33f6c4046e8d418886eea8564f9dd214a32aa5ba08d9602b5439060200160405180910390a25050505050565b60075433906000805b8281101561115b57836001600160a01b03166007828154811061112857611128612929565b6000918252602090912001546001600160a01b03160361114b576001915061115b565b61115481612955565b9050611103565b5080151560000361118a57604051631efbf66f60e01b81526001600160a01b03841660048201526024016103a9565b6111926124a2565b600354604051637796992960e01b8152600481018690523360248201526001600160a01b0390911690637796992990604401600060405180830381600087803b1580156111de57600080fd5b505af11580156111f2573d6000803e3d6000fd5b505060035460405163d09ef24160e01b815260048101889052600093508392506001600160a01b039091169063d09ef2419060240160e060405180830381865afa158015611244573d6000803e3d6000fd5b505050506040513d601f19601f820116820180604052508101906112689190612c75565b50506000838152600860205260408120939750909550919350909150505b828110156112b8576004820180549060006112a083612955565b919050555080806112b090612955565b915050611286565b505050506112c560018055565b50505050565b60075481906000805b8281101561132c57836001600160a01b0316600782815481106112f9576112f9612929565b6000918252602090912001546001600160a01b03160361131c576001915061132c565b61132581612955565b90506112d4565b5080151560000361135b57604051631efbf66f60e01b81526001600160a01b03841660048201526024016103a9565b6113636124a2565b61136c3361062e565b6002546040805163313ce56760e01b815290516001600160a01b039092169163a9059cbb913391849163313ce5679160048083019260209291908290030181865afa1580156113bf573d6000803e3d6000fd5b505050506040513d601f19601f820116820180604052508101906113e39190612cee565b6113ee90600a612c2d565b6113f9906032612c3c565b6040516001600160e01b031960e085901b1681526001600160a01b03909216600483015260248201526044016020604051808303816000875af1158015611444573d6000803e3d6000fd5b505050506040513d601f19601f820116820180604052508101906114689190612987565b506002546040805163313ce56760e01b815290516001600160a01b039092169163a9059cbb918791849163313ce5679160048083019260209291908290030181865afa1580156114bc573d6000803e3d6000fd5b505050506040513d601f19601f820116820180604052508101906114e09190612cee565b6114eb90600a612c2d565b6114f6906032612c3c565b6040516001600160e01b031960e085901b1681526001600160a01b03909216600483015260248201526044016020604051808303816000875af1158015611541573d6000803e3d6000fd5b505050506040513d601f19601f820116820180604052508101906115659190612987565b506112c560018055565b6115776124fb565b6115816000612555565b565b60006115a060648361159686600a612c3c565b610e619190612c3c565b9392505050565b60006115d47f0000000000000000000000000000000000000000000000000000000000000000600a612c2d565b600260009054906101000a90046001600160a01b03166001600160a01b031663313ce5676040518163ffffffff1660e01b8152600401602060405180830381865afa158015611627573d6000803e3d6000fd5b505050506040513d601f19601f8201168201806040525081019061164b9190612cee565b61165690600a612c2d565b611661600a85612c3c565b61166b9190612c3c565b6116759190612c53565b92915050565b6116836124fb565b600280546001600160a01b039384166001600160a01b03199182161790915560038054929093169116179055565b6000600782815481106116c6576116c6612929565b6000918252602090912001546001600160a01b031692915050565b6000826000600860008381526020019081526020016000206040518060e0016040529081600082018054611714906129a9565b80601f0160208091040260200160405190810160405280929190818152602001828054611740906129a9565b801561178d5780601f106117625761010080835404028352916020019161178d565b820191906000526020600020905b81548152906001019060200180831161177057829003601f168201915b505050505081526020016001820180546117a6906129a9565b80601f01602080910402602001604051908101604052809291908181526020018280546117d2906129a9565b801561181f5780601f106117f45761010080835404028352916020019161181f565b820191906000526020600020905b81548152906001019060200180831161180257829003601f168201915b50505050508152602001600282018054611838906129a9565b80601f0160208091040260200160405190810160405280929190818152602001828054611864906129a9565b80156118b15780601f10611886576101008083540402835291602001916118b1565b820191906000526020600020905b81548152906001019060200180831161189457829003601f168201915b5050509183525050600382015460208201526004820154604082015260058201546060808301919091526006909201546001600160a01b03166080909101528101519091506119165760405163068bb67560e51b8152600481018390526024016103a9565b60075433906000805b8281101561197757836001600160a01b03166007828154811061194457611944612929565b6000918252602090912001546001600160a01b0316036119675760019150611977565b61197081612955565b905061191f565b508015156000036119a657604051631efbf66f60e01b81526001600160a01b03841660048201526024016103a9565b6119ae6124a2565b600088815260086020526040812060048101549091906119cf908a90612d11565b10156119ed576040516254585f60e71b815260040160405180910390fd5b8781600301546119fd9190612c3c565b600480546040516370a0823160e01b815233928101929092526001600160a01b0316906370a0823190602401602060405180830381865afa158015611a46573d6000803e3d6000fd5b505050506040513d601f19601f82011682018060405250810190611a6a919061296e565b1015611a8957604051637222ae5760e11b815260040160405180910390fd5b6000606482600401548a8460050154611aa29190612c3c565b611aac9190612c53565b611ab7906046612c3c565b611ac19190612c53565b90506000600360009054906101000a90046001600160a01b03166001600160a01b031663a645c3bc8460060160009054906101000a90046001600160a01b0316338e8e8860030154611b139190612c3c565b6040516001600160e01b031960e087901b1681526001600160a01b03948516600482015293909216602484015260448301526064820152608481018d905260a4810185905260c4016020604051808303816000875af1158015611b7a573d6000803e3d6000fd5b505050506040513d601f19601f82011682018060405250810190611b9e919061296e565b905060005b8a811015611bd557600484018054906000611bbd83612d24565b91905055508080611bcd90612955565b915050611ba3565b5060068301546003840154600485015460058601546040518f946001600160a01b0316937f33b76ad8c97c033088071a2f32eb30c337ade9d92bbab6217b3cb51189020d5c93611c34938a936001850193600286019390929091612db7565b60405180910390a397505050611c4960018055565b505050505092915050565b611c5c6124fb565b6001600160a01b038116611cc15760405162461bcd60e51b815260206004820152602660248201527f4f776e61626c653a206e6577206f776e657220697320746865207a65726f206160448201526564647265737360d01b60648201526084016103a9565b611cca81612555565b50565b60075433906000805b82811015611d2e57836001600160a01b031660078281548110611cfb57611cfb612929565b6000918252602090912001546001600160a01b031603611d1e5760019150611d2e565b611d2781612955565b9050611cd6565b50801515600003611d5d57604051631efbf66f60e01b81526001600160a01b03841660048201526024016103a9565b886000600860008381526020019081526020016000206040518060e0016040529081600082018054611d8e906129a9565b80601f0160208091040260200160405190810160405280929190818152602001828054611dba906129a9565b8015611e075780601f10611ddc57610100808354040283529160200191611e07565b820191906000526020600020905b815481529060010190602001808311611dea57829003601f168201915b50505050508152602001600182018054611e20906129a9565b80601f0160208091040260200160405190810160405280929190818152602001828054611e4c906129a9565b8015611e995780601f10611e6e57610100808354040283529160200191611e99565b820191906000526020600020905b815481529060010190602001808311611e7c57829003601f168201915b50505050508152602001600282018054611eb2906129a9565b80601f0160208091040260200160405190810160405280929190818152602001828054611ede906129a9565b8015611f2b5780601f10611f0057610100808354040283529160200191611f2b565b820191906000526020600020905b815481529060010190602001808311611f0e57829003601f168201915b5050509183525050600382015460208201526004820154604082015260058201546060808301919091526006909201546001600160a01b0316608090910152810151909150611f905760405163068bb67560e51b8152600481018390526024016103a9565b60008b8152600860205260409020600601546001600160a01b03163314611ff15760405162461bcd60e51b815260206004820152601560248201527421b0b63632b91036bab9ba1031329029b2b63632b960591b60448201526064016103a9565b60008b81526008602052604090206003015461200f90600290612c53565b87116120775760405162461bcd60e51b815260206004820152603160248201527f4e6577207072696365206d757374206265206d6f7265207468616e2068616c66604482015270206f6620746865206f6c6420707269636560781b60648201526084016103a9565b60008b815260086020526040812060050154906120948989611583565b905081811115612139576002546001600160a01b03166323b872dd33306120bb8686612d11565b6040516001600160e01b031960e086901b1681526001600160a01b03938416600482015292909116602483015260448201526064016020604051808303816000875af115801561210f573d6000803e3d6000fd5b505050506040513d601f19601f820116820180604052508101906121339190612987565b506121c6565b6002546001600160a01b031663a9059cbb336121558486612d11565b6040516001600160e01b031960e085901b1681526001600160a01b03909216600483015260248201526044016020604051808303816000875af11580156121a0573d6000803e3d6000fd5b505050506040513d601f19601f820116820180604052508101906121c49190612987565b505b6040518060e001604052808d81526020018c81526020018b81526020018a8152602001898152602001828152602001336001600160a01b0316815250600860008f8152602001908152602001600020600082015181600001908161222a9190612a31565b506020820151600182019061223f9082612a31565b50604082015160028201906122549082612a31565b50606082015181600301556080820151816004015560a0820151816005015560c08201518160060160006101000a8154816001600160a01b0302191690836001600160a01b031602179055509050508c336001600160a01b03167f33b76ad8c97c033088071a2f32eb30c337ade9d92bbab6217b3cb51189020d5c8e8e8e8e8e886040516122e796959493929190612af1565b60405180910390a350505050505050505050505050565b60075433906000805b8281101561235f57836001600160a01b03166007828154811061232c5761232c612929565b6000918252602090912001546001600160a01b03160361234f576001915061235f565b61235881612955565b9050612307565b5080151560000361238e57604051631efbf66f60e01b81526001600160a01b03841660048201526024016103a9565b6123966124a2565b600354604051631af23a5960e01b8152600481018690523360248201526001600160a01b0390911690631af23a5990604401600060405180830381600087803b1580156123e257600080fd5b505af11580156123f6573d6000803e3d6000fd5b505060035460405163d09ef24160e01b815260048101889052600093506001600160a01b03909116915063d09ef2419060240160e060405180830381865afa158015612446573d6000803e3d6000fd5b505050506040513d601f19601f8201168201806040525081019061246a9190612c75565b505033600090815260066020526040812080549397508796509450925061249391859150612df0565b909155505060018055506112c5565b6002600154036124f45760405162461bcd60e51b815260206004820152601f60248201527f5265656e7472616e637947756172643a207265656e7472616e742063616c6c0060448201526064016103a9565b6002600155565b6000546001600160a01b031633146115815760405162461bcd60e51b815260206004820181905260248201527f4f776e61626c653a2063616c6c6572206973206e6f7420746865206f776e657260448201526064016103a9565b600080546001600160a01b038381166001600160a01b0319831681178455604051919092169283917f8be0079c531659141344cd1fd0a4f28419497f9722a3daafe3b4186f6b6457e09190a35050565b5080546125b1906129a9565b6000825580601f106125c1575050565b601f016020900490600052602060002090810190611cca91905b808211156125ef57600081556001016125db565b5090565b634e487b7160e01b600052604160045260246000fd5b600082601f83011261261a57600080fd5b813567ffffffffffffffff80821115612635576126356125f3565b604051601f8301601f19908116603f0116810190828211818310171561265d5761265d6125f3565b8160405283815286602085880101111561267657600080fd5b836020870160208301376000602085830101528094505050505092915050565b600080600080600060a086880312156126ae57600080fd5b853567ffffffffffffffff808211156126c657600080fd5b6126d289838a01612609565b965060208801359150808211156126e857600080fd5b6126f489838a01612609565b9550604088013591508082111561270a57600080fd5b5061271788828901612609565b9598949750949560608101359550608001359392505050565b6001600160a01b0381168114611cca57600080fd5b60006020828403121561275757600080fd5b81356115a081612730565b60006020828403121561277457600080fd5b5035919050565b6000815180845260005b818110156127a157602081850181015186830182015201612785565b506000602082860101526020601f19601f83011685010191505092915050565b60e0815260006127d460e083018a61277b565b82810360208401526127e6818a61277b565b905082810360408401526127fa818961277b565b60608401979097525050608081019390935260a08301919091526001600160a01b031660c0909101529392505050565b6000806040838503121561283d57600080fd5b50508035926020909101359150565b6000806040838503121561285f57600080fd5b823561286a81612730565b9150602083013561287a81612730565b809150509250929050565b60008060008060008060c0878903121561289e57600080fd5b86359550602087013567ffffffffffffffff808211156128bd57600080fd5b6128c98a838b01612609565b965060408901359150808211156128df57600080fd5b6128eb8a838b01612609565b9550606089013591508082111561290157600080fd5b5061290e89828a01612609565b9350506080870135915060a087013590509295509295509295565b634e487b7160e01b600052603260045260246000fd5b634e487b7160e01b600052601160045260246000fd5b6000600182016129675761296761293f565b5060010190565b60006020828403121561298057600080fd5b5051919050565b60006020828403121561299957600080fd5b815180151581146115a057600080fd5b600181811c908216806129bd57607f821691505b6020821081036129dd57634e487b7160e01b600052602260045260246000fd5b50919050565b601f821115610f2657600081815260208120601f850160051c81016020861015612a0a5750805b601f850160051c820191505b81811015612a2957828155600101612a16565b505050505050565b815167ffffffffffffffff811115612a4b57612a4b6125f3565b612a5f81612a5984546129a9565b846129e3565b602080601f831160018114612a945760008415612a7c5750858301515b600019600386901b1c1916600185901b178555612a29565b600085815260208120601f198616915b82811015612ac357888601518255948401946001909101908401612aa4565b5085821015612ae15787850151600019600388901b60f8161c191681555b5050505050600190811b01905550565b60c081526000612b0460c083018961277b565b8281036020840152612b16818961277b565b90508281036040840152612b2a818861277b565b60608401969096525050608081019290925260a0909101529392505050565b600181815b80851115612b84578160001904821115612b6a57612b6a61293f565b80851615612b7757918102915b93841c9390800290612b4e565b509250929050565b600082612b9b57506001611675565b81612ba857506000611675565b8160018114612bbe5760028114612bc857612be4565b6001915050611675565b60ff841115612bd957612bd961293f565b50506001821b611675565b5060208310610133831016604e8410600b8410161715612c07575081810a611675565b612c118383612b49565b8060001904821115612c2557612c2561293f565b029392505050565b60006115a060ff841683612b8c565b80820281158282048414176116755761167561293f565b600082612c7057634e487b7160e01b600052601260045260246000fd5b500490565b600080600080600080600060e0888a031215612c9057600080fd5b8751612c9b81612730565b6020890151909750612cac81612730565b8096505060408801519450606088015193506080880151925060a0880151915060c088015160038110612cde57600080fd5b8091505092959891949750929550565b600060208284031215612d0057600080fd5b815160ff811681146115a057600080fd5b818103818111156116755761167561293f565b600081612d3357612d3361293f565b506000190190565b60008154612d48816129a9565b808552602060018381168015612d655760018114612d7f57611c49565b60ff1985168884015283151560051b880183019550611c49565b866000528260002060005b85811015612da55781548a8201860152908301908401612d8a565b89018401965050505050505092915050565b60c081526000612dca60c0830189612d3b565b8281036020840152612ddc8189612d3b565b90508281036040840152612b2a8188612d3b565b808201808211156116755761167561293f56fea2646970667358221220d0de180cd3557040aa107a7e49c395082a5aea4035e2f6d949a6258b0a20fc1064736f6c63430008110033",
    "linkReferences": {}
  },
  "methodIdentifiers": {
    "UseReferalLink(address)": "6557b07d",
    "activate(address,address)": "9555c4db",
    "buyTOM(uint256)": "47f5546a",
    "calculatePostingFee(uint256,uint256)": "7f21a48a",
    "calculateTOMAmount(uint256)": "918e3b4c",
    "cancelListing(uint256)": "305a67a8",
    "cancelOrder(uint256)": "514fcac7",
    "claimRewards()": "372500ab",
    "confirmDelivery(uint256)": "fd84cb97",
    "getEscrowAddress()": "122fd48a",
    "getItem(uint256)": "3129e773",
    "getSpentAmount(address)": "4e10efbd",
    "getTokenAddress()": "10fe9ae8",
    "getTomAddress()": "86664124",
    "getUser(uint256)": "b0467deb",
    "listItem(string,string,string,uint256,uint256)": "1627eaf2",
    "orderItem(uint256,uint256)": "ce16dcc8",
    "owner()": "8da5cb5b",
    "registerUser(address)": "2199d5cd",
    "renounceOwnership()": "715018a6",
    "transferOwnership(address)": "f2fde38b",
    "updateItem(uint256,string,string,string,uint256,uint256)": "f75b59f4"
  },
  "id": 41
}