{
  "abi": [
    {
      "inputs": [
        {
          "internalType": "address",
          "name": "marketplace",
          "type": "address"
        }
      ],
      "stateMutability": "nonpayable",
      "type": "constructor"
    },
    {
      "inputs": [],
      "name": "InvalidShortString",
      "type": "error"
    },
    {
      "inputs": [
        {
          "internalType": "string",
          "name": "str",
          "type": "string"
        }
      ],
      "name": "StringTooLong",
      "type": "error"
    },
    {
      "anonymous": false,
      "inputs": [
        {
          "indexed": true,
          "internalType": "address",
          "name": "owner",
          "type": "address"
        },
        {
          "indexed": true,
          "internalType": "address",
          "name": "spender",
          "type": "address"
        },
        {
          "indexed": false,
          "internalType": "uint256",
          "name": "value",
          "type": "uint256"
        }
      ],
      "name": "Approval",
      "type": "event"
    },
    {
      "anonymous": false,
      "inputs": [
        {
          "indexed": true,
          "internalType": "address",
          "name": "delegator",
          "type": "address"
        },
        {
          "indexed": true,
          "internalType": "address",
          "name": "fromDelegate",
          "type": "address"
        },
        {
          "indexed": true,
          "internalType": "address",
          "name": "toDelegate",
          "type": "address"
        }
      ],
      "name": "DelegateChanged",
      "type": "event"
    },
    {
      "anonymous": false,
      "inputs": [
        {
          "indexed": true,
          "internalType": "address",
          "name": "delegate",
          "type": "address"
        },
        {
          "indexed": false,
          "internalType": "uint256",
          "name": "previousBalance",
          "type": "uint256"
        },
        {
          "indexed": false,
          "internalType": "uint256",
          "name": "newBalance",
          "type": "uint256"
        }
      ],
      "name": "DelegateVotesChanged",
      "type": "event"
    },
    {
      "anonymous": false,
      "inputs": [],
      "name": "EIP712DomainChanged",
      "type": "event"
    },
    {
      "anonymous": false,
      "inputs": [
        {
          "indexed": true,
          "internalType": "address",
          "name": "from",
          "type": "address"
        },
        {
          "indexed": true,
          "internalType": "address",
          "name": "to",
          "type": "address"
        },
        {
          "indexed": false,
          "internalType": "uint256",
          "name": "value",
          "type": "uint256"
        }
      ],
      "name": "Transfer",
      "type": "event"
    },
    {
      "inputs": [],
      "name": "CLOCK_MODE",
      "outputs": [
        {
          "internalType": "string",
          "name": "",
          "type": "string"
        }
      ],
      "stateMutability": "view",
      "type": "function"
    },
    {
      "inputs": [],
      "name": "DOMAIN_SEPARATOR",
      "outputs": [
        {
          "internalType": "bytes32",
          "name": "",
          "type": "bytes32"
        }
      ],
      "stateMutability": "view",
      "type": "function"
    },
    {
      "inputs": [
        {
          "internalType": "address",
          "name": "owner",
          "type": "address"
        },
        {
          "internalType": "address",
          "name": "spender",
          "type": "address"
        }
      ],
      "name": "allowance",
      "outputs": [
        {
          "internalType": "uint256",
          "name": "",
          "type": "uint256"
        }
      ],
      "stateMutability": "view",
      "type": "function"
    },
    {
      "inputs": [
        {
          "internalType": "address",
          "name": "spender",
          "type": "address"
        },
        {
          "internalType": "uint256",
          "name": "amount",
          "type": "uint256"
        }
      ],
      "name": "approve",
      "outputs": [
        {
          "internalType": "bool",
          "name": "",
          "type": "bool"
        }
      ],
      "stateMutability": "nonpayable",
      "type": "function"
    },
    {
      "inputs": [
        {
          "internalType": "address",
          "name": "account",
          "type": "address"
        }
      ],
      "name": "balanceOf",
      "outputs": [
        {
          "internalType": "uint256",
          "name": "",
          "type": "uint256"
        }
      ],
      "stateMutability": "view",
      "type": "function"
    },
    {
      "inputs": [
        {
          "internalType": "address",
          "name": "owner",
          "type": "address"
        },
        {
          "internalType": "uint256",
          "name": "_stablecoinAmount",
          "type": "uint256"
        }
      ],
      "name": "burn",
      "outputs": [],
      "stateMutability": "nonpayable",
      "type": "function"
    },
    {
      "inputs": [
        {
          "internalType": "address",
          "name": "account",
          "type": "address"
        },
        {
          "internalType": "uint32",
          "name": "pos",
          "type": "uint32"
        }
      ],
      "name": "checkpoints",
      "outputs": [
        {
          "components": [
            {
              "internalType": "uint32",
              "name": "fromBlock",
              "type": "uint32"
            },
            {
              "internalType": "uint224",
              "name": "votes",
              "type": "uint224"
            }
          ],
          "internalType": "struct ERC20Votes.Checkpoint",
          "name": "",
          "type": "tuple"
        }
      ],
      "stateMutability": "view",
      "type": "function"
    },
    {
      "inputs": [],
      "name": "clock",
      "outputs": [
        {
          "internalType": "uint48",
          "name": "",
          "type": "uint48"
        }
      ],
      "stateMutability": "view",
      "type": "function"
    },
    {
      "inputs": [],
      "name": "decimals",
      "outputs": [
        {
          "internalType": "uint8",
          "name": "",
          "type": "uint8"
        }
      ],
      "stateMutability": "pure",
      "type": "function"
    },
    {
      "inputs": [
        {
          "internalType": "address",
          "name": "spender",
          "type": "address"
        },
        {
          "internalType": "uint256",
          "name": "subtractedValue",
          "type": "uint256"
        }
      ],
      "name": "decreaseAllowance",
      "outputs": [
        {
          "internalType": "bool",
          "name": "",
          "type": "bool"
        }
      ],
      "stateMutability": "nonpayable",
      "type": "function"
    },
    {
      "inputs": [
        {
          "internalType": "address",
          "name": "delegatee",
          "type": "address"
        }
      ],
      "name": "delegate",
      "outputs": [],
      "stateMutability": "nonpayable",
      "type": "function"
    },
    {
      "inputs": [
        {
          "internalType": "address",
          "name": "delegatee",
          "type": "address"
        },
        {
          "internalType": "uint256",
          "name": "nonce",
          "type": "uint256"
        },
        {
          "internalType": "uint256",
          "name": "expiry",
          "type": "uint256"
        },
        {
          "internalType": "uint8",
          "name": "v",
          "type": "uint8"
        },
        {
          "internalType": "bytes32",
          "name": "r",
          "type": "bytes32"
        },
        {
          "internalType": "bytes32",
          "name": "s",
          "type": "bytes32"
        }
      ],
      "name": "delegateBySig",
      "outputs": [],
      "stateMutability": "nonpayable",
      "type": "function"
    },
    {
      "inputs": [
        {
          "internalType": "address",
          "name": "account",
          "type": "address"
        }
      ],
      "name": "delegates",
      "outputs": [
        {
          "internalType": "address",
          "name": "",
          "type": "address"
        }
      ],
      "stateMutability": "view",
      "type": "function"
    },
    {
      "inputs": [],
      "name": "eip712Domain",
      "outputs": [
        {
          "internalType": "bytes1",
          "name": "fields",
          "type": "bytes1"
        },
        {
          "internalType": "string",
          "name": "name",
          "type": "string"
        },
        {
          "internalType": "string",
          "name": "version",
          "type": "string"
        },
        {
          "internalType": "uint256",
          "name": "chainId",
          "type": "uint256"
        },
        {
          "internalType": "address",
          "name": "verifyingContract",
          "type": "address"
        },
        {
          "internalType": "bytes32",
          "name": "salt",
          "type": "bytes32"
        },
        {
          "internalType": "uint256[]",
          "name": "extensions",
          "type": "uint256[]"
        }
      ],
      "stateMutability": "view",
      "type": "function"
    },
    {
      "inputs": [
        {
          "internalType": "uint256",
          "name": "timepoint",
          "type": "uint256"
        }
      ],
      "name": "getPastTotalSupply",
      "outputs": [
        {
          "internalType": "uint256",
          "name": "",
          "type": "uint256"
        }
      ],
      "stateMutability": "view",
      "type": "function"
    },
    {
      "inputs": [
        {
          "internalType": "address",
          "name": "account",
          "type": "address"
        },
        {
          "internalType": "uint256",
          "name": "timepoint",
          "type": "uint256"
        }
      ],
      "name": "getPastVotes",
      "outputs": [
        {
          "internalType": "uint256",
          "name": "",
          "type": "uint256"
        }
      ],
      "stateMutability": "view",
      "type": "function"
    },
    {
      "inputs": [
        {
          "internalType": "address",
          "name": "account",
          "type": "address"
        }
      ],
      "name": "getVotes",
      "outputs": [
        {
          "internalType": "uint256",
          "name": "",
          "type": "uint256"
        }
      ],
      "stateMutability": "view",
      "type": "function"
    },
    {
      "inputs": [
        {
          "internalType": "address",
          "name": "spender",
          "type": "address"
        },
        {
          "internalType": "uint256",
          "name": "addedValue",
          "type": "uint256"
        }
      ],
      "name": "increaseAllowance",
      "outputs": [
        {
          "internalType": "bool",
          "name": "",
          "type": "bool"
        }
      ],
      "stateMutability": "nonpayable",
      "type": "function"
    },
    {
      "inputs": [
        {
          "internalType": "address",
          "name": "_receiver",
          "type": "address"
        },
        {
          "internalType": "uint256",
          "name": "_moreDebt",
          "type": "uint256"
        }
      ],
      "name": "mint",
      "outputs": [],
      "stateMutability": "nonpayable",
      "type": "function"
    },
    {
      "inputs": [],
      "name": "name",
      "outputs": [
        {
          "internalType": "string",
          "name": "",
          "type": "string"
        }
      ],
      "stateMutability": "view",
      "type": "function"
    },
    {
      "inputs": [
        {
          "internalType": "address",
          "name": "owner",
          "type": "address"
        }
      ],
      "name": "nonces",
      "outputs": [
        {
          "internalType": "uint256",
          "name": "",
          "type": "uint256"
        }
      ],
      "stateMutability": "view",
      "type": "function"
    },
    {
      "inputs": [
        {
          "internalType": "address",
          "name": "account",
          "type": "address"
        }
      ],
      "name": "numCheckpoints",
      "outputs": [
        {
          "internalType": "uint32",
          "name": "",
          "type": "uint32"
        }
      ],
      "stateMutability": "view",
      "type": "function"
    },
    {
      "inputs": [
        {
          "internalType": "address",
          "name": "owner",
          "type": "address"
        },
        {
          "internalType": "address",
          "name": "spender",
          "type": "address"
        },
        {
          "internalType": "uint256",
          "name": "value",
          "type": "uint256"
        },
        {
          "internalType": "uint256",
          "name": "deadline",
          "type": "uint256"
        },
        {
          "internalType": "uint8",
          "name": "v",
          "type": "uint8"
        },
        {
          "internalType": "bytes32",
          "name": "r",
          "type": "bytes32"
        },
        {
          "internalType": "bytes32",
          "name": "s",
          "type": "bytes32"
        }
      ],
      "name": "permit",
      "outputs": [],
      "stateMutability": "nonpayable",
      "type": "function"
    },
    {
      "inputs": [],
      "name": "s_maxSupply",
      "outputs": [
        {
          "internalType": "uint256",
          "name": "",
          "type": "uint256"
        }
      ],
      "stateMutability": "view",
      "type": "function"
    },
    {
      "inputs": [],
      "name": "symbol",
      "outputs": [
        {
          "internalType": "string",
          "name": "",
          "type": "string"
        }
      ],
      "stateMutability": "view",
      "type": "function"
    },
    {
      "inputs": [],
      "name": "totalSupply",
      "outputs": [
        {
          "internalType": "uint256",
          "name": "",
          "type": "uint256"
        }
      ],
      "stateMutability": "view",
      "type": "function"
    },
    {
      "inputs": [
        {
          "internalType": "address",
          "name": "to",
          "type": "address"
        },
        {
          "internalType": "uint256",
          "name": "amount",
          "type": "uint256"
        }
      ],
      "name": "transfer",
      "outputs": [
        {
          "internalType": "bool",
          "name": "",
          "type": "bool"
        }
      ],
      "stateMutability": "nonpayable",
      "type": "function"
    },
    {
      "inputs": [
        {
          "internalType": "address",
          "name": "from",
          "type": "address"
        },
        {
          "internalType": "address",
          "name": "to",
          "type": "address"
        },
        {
          "internalType": "uint256",
          "name": "amount",
          "type": "uint256"
        }
      ],
      "name": "transferFrom",
      "outputs": [
        {
          "internalType": "bool",
          "name": "",
          "type": "bool"
        }
      ],
      "stateMutability": "nonpayable",
      "type": "function"
    }
  ],
  "bytecode": {
    "object": "0x6101606040526b033b2e3c9fd0803ce8000000600c553480156200002257600080fd5b5060405162003003380380620030038339810160408190526200004591620008da565b6040518060400160405280600b81526020016a151bdad95b93585c9ad95d60aa1b81525080604051806040016040528060018152602001603160f81b8152506040518060400160405280600b81526020016a151bdad95b93585c9ad95d60aa1b81525060405180604001604052806003815260200162544f4d60e81b8152508160039081620000d59190620009a9565b506004620000e48282620009a9565b50505062000102600583620001ce60201b62000c9a1790919060201c565b610120526200011f816006620001ce602090811b62000c9a17901c565b61014052815160208084019190912060e052815190820120610100524660a052620001ad60e05161010051604080517f8b73c3c69bb8fe3d512ecc4cf759cc79239f7b179b0ffacaa9a75d522b39400f60208201529081019290925260608201524660808201523060a082015260009060c00160405160208183030381529060405280519060200120905090565b60805250503060c05250600c54620001c79082906200021e565b5062000b2c565b6000602083511015620001ee57620001e68362000239565b905062000218565b8262000205836200028560201b62000ccb1760201c565b90620002129082620009a9565b5060ff90505b92915050565b6200023582826200028860201b62000cce1760201c565b5050565b600080829050601f8151111562000270578260405163305a27a960e01b815260040162000267919062000a75565b60405180910390fd5b80516200027d8262000ac5565b179392505050565b90565b6200029f82826200033b60201b62000d5e1760201c565b6001600160e01b03620002b3620004088216565b11156200031c5760405162461bcd60e51b815260206004820152603060248201527f4552433230566f7465733a20746f74616c20737570706c79207269736b73206f60448201526f766572666c6f77696e6720766f74657360801b606482015260840162000267565b62000335600b62000e256200040e60201b178362000423565b50505050565b6001600160a01b038216620003935760405162461bcd60e51b815260206004820152601f60248201527f45524332303a206d696e7420746f20746865207a65726f206164647265737300604482015260640162000267565b8060026000828254620003a7919062000b00565b90915550506001600160a01b038216600081815260208181526040808320805486019055518481527fddf252ad1be2c89b69c2b068fc378daa952ba7f163c4a11628f55a4df523b3ef910160405180910390a36200023560008383620005d1565b60025490565b60006200041c828462000b00565b9392505050565b82546000908190818115620004725760008781526020902082016000190160408051808201909152905463ffffffff8116825264010000000090046001600160e01b0316602082015262000487565b60408051808201909152600080825260208201525b905080602001516001600160e01b03169350620004a584868860201c565b9250600082118015620004d25750620004bd620005e9565b65ffffffffffff16816000015163ffffffff16145b156200052657620004ee836200060660201b62000e311760201c565b60008881526020902083016000190180546001600160e01b03929092166401000000000263ffffffff909216919091179055620005c2565b8660405180604001604052806200055f62000546620005e960201b60201c565b65ffffffffffff166200067560201b62000e9e1760201c565b63ffffffff16815260200162000580866200060660201b62000e311760201c565b6001600160e01b0390811690915282546001810184556000938452602093849020835194909301519091166401000000000263ffffffff909316929092179101555b5050935093915050565b505050565b620005cc838383620006dc60201b62000f031760201c565b600062000601436200072860201b62000f3a1760201c565b905090565b60006001600160e01b03821115620006715760405162461bcd60e51b815260206004820152602760248201527f53616665436173743a2076616c756520646f65736e27742066697420696e20326044820152663234206269747360c81b606482015260840162000267565b5090565b600063ffffffff821115620006715760405162461bcd60e51b815260206004820152602660248201527f53616665436173743a2076616c756520646f65736e27742066697420696e203360448201526532206269747360d01b606482015260840162000267565b620006f4838383620005cc60201b62000f351760201c565b6001600160a01b03838116600090815260096020526040808220548584168352912054620005cc9291821691168362000791565b600065ffffffffffff821115620006715760405162461bcd60e51b815260206004820152602660248201527f53616665436173743a2076616c756520646f65736e27742066697420696e203460448201526538206269747360d01b606482015260840162000267565b816001600160a01b0316836001600160a01b031614158015620007b45750600081115b15620005cc576001600160a01b0383161562000841576001600160a01b0383166000908152600a6020908152604082208291620007fe9190620008cc901b62000fa1178562000423565b91509150846001600160a01b031660008051602062002fe3833981519152838360405162000836929190918252602082015260400190565b60405180910390a250505b6001600160a01b03821615620005cc576001600160a01b0382166000908152600a60209081526040822082916200088591906200040e901b62000e25178562000423565b91509150836001600160a01b031660008051602062002fe38339815191528383604051620008bd929190918252602082015260400190565b60405180910390a25050505050565b60006200041c828462000b16565b600060208284031215620008ed57600080fd5b81516001600160a01b03811681146200041c57600080fd5b634e487b7160e01b600052604160045260246000fd5b600181811c908216806200093057607f821691505b6020821081036200095157634e487b7160e01b600052602260045260246000fd5b50919050565b601f821115620005cc57600081815260208120601f850160051c81016020861015620009805750805b601f850160051c820191505b81811015620009a1578281556001016200098c565b505050505050565b81516001600160401b03811115620009c557620009c562000905565b620009dd81620009d684546200091b565b8462000957565b602080601f83116001811462000a155760008415620009fc5750858301515b600019600386901b1c1916600185901b178555620009a1565b600085815260208120601f198616915b8281101562000a465788860151825594840194600190910190840162000a25565b508582101562000a655787850151600019600388901b60f8161c191681555b5050505050600190811b01905550565b600060208083528351808285015260005b8181101562000aa45785810183015185820160400152820162000a86565b506000604082860101526040601f19601f8301168501019250505092915050565b80516020808301519190811015620009515760001960209190910360031b1b16919050565b634e487b7160e01b600052601160045260246000fd5b8082018082111562000218576200021862000aea565b8181038181111562000218576200021862000aea565b60805160a05160c05160e05161010051610120516101405161245c62000b87600039600061071b015260006106f0015260006113c9015260006113a1015260006112fc0152600061132601526000611350015261245c6000f3fe608060405234801561001057600080fd5b50600436106101c45760003560e01c806370a08231116100f95780639dc29fac11610097578063c3cda52011610071578063c3cda520146103ee578063d505accf14610401578063dd62ed3e14610414578063f1127ed81461042757600080fd5b80639dc29fac146103b5578063a457c2d7146103c8578063a9059cbb146103db57600080fd5b80638e539e8c116100d35780638e539e8c1461036857806391ddadf41461037b57806395d89b411461039a5780639ab24eb0146103a257600080fd5b806370a08231146103115780637ecebe001461033a57806384b0196e1461034d57600080fd5b80633a46b1a811610166578063587cde1e11610140578063587cde1e146102895780635c19a95c146102cd5780635d641847146102e05780636fcfff45146102e957600080fd5b80633a46b1a81461025957806340c10f191461026c5780634bf5d7e91461028157600080fd5b806323b872dd116101a257806323b872dd1461021c578063313ce5671461022f5780633644e5151461023e578063395093511461024657600080fd5b806306fdde03146101c9578063095ea7b3146101e757806318160ddd1461020a575b600080fd5b6101d1610464565b6040516101de9190611f65565b60405180910390f35b6101fa6101f5366004611f94565b6104f6565b60405190151581526020016101de565b6002545b6040519081526020016101de565b6101fa61022a366004611fbe565b610510565b604051601281526020016101de565b61020e610534565b6101fa610254366004611f94565b610543565b61020e610267366004611f94565b610565565b61027f61027a366004611f94565b6105ef565b005b6101d16105fd565b6102b5610297366004611ffa565b6001600160a01b039081166000908152600960205260409020541690565b6040516001600160a01b0390911681526020016101de565b61027f6102db366004611ffa565b610695565b61020e600c5481565b6102fc6102f7366004611ffa565b6106a2565b60405163ffffffff90911681526020016101de565b61020e61031f366004611ffa565b6001600160a01b031660009081526020819052604090205490565b61020e610348366004611ffa565b6106c4565b6103556106e2565b6040516101de9796959493929190612015565b61020e6103763660046120ab565b61076b565b6103836107d2565b60405165ffffffffffff90911681526020016101de565b6101d16107dd565b61020e6103b0366004611ffa565b6107ec565b61027f6103c3366004611f94565b61086e565b6101fa6103d6366004611f94565b6108c8565b6101fa6103e9366004611f94565b610943565b61027f6103fc3660046120d5565b610951565b61027f61040f36600461212d565b610a87565b61020e610422366004612197565b610beb565b61043a6104353660046121ca565b610c16565b60408051825163ffffffff1681526020928301516001600160e01b031692810192909252016101de565b6060600380546104739061220a565b80601f016020809104026020016040519081016040528092919081815260200182805461049f9061220a565b80156104ec5780601f106104c1576101008083540402835291602001916104ec565b820191906000526020600020905b8154815290600101906020018083116104cf57829003601f168201915b5050505050905090565b600033610504818585610fad565b60019150505b92915050565b60003361051e8582856110d1565b610529858585611145565b506001949350505050565b600061053e6112ef565b905090565b6000336105048185856105568383610beb565b6105609190612254565b610fad565b600061056f6107d2565b65ffffffffffff1682106105c65760405162461bcd60e51b815260206004820152601960248201527804552433230566f7465733a20667574757265206c6f6f6b757603c1b60448201526064015b60405180910390fd5b6001600160a01b0383166000908152600a602052604090206105e8908361141a565b9392505050565b6105f98282611503565b5050565b6060436106086107d2565b65ffffffffffff161461065d5760405162461bcd60e51b815260206004820152601d60248201527f4552433230566f7465733a2062726f6b656e20636c6f636b206d6f646500000060448201526064016105bd565b5060408051808201909152601d81527f6d6f64653d626c6f636b6e756d6265722666726f6d3d64656661756c74000000602082015290565b61069f338261150d565b50565b6001600160a01b0381166000908152600a602052604081205461050a90610e9e565b6001600160a01b03811660009081526007602052604081205461050a565b6000606080828080836107167f00000000000000000000000000000000000000000000000000000000000000006005611586565b6107417f00000000000000000000000000000000000000000000000000000000000000006006611586565b60408051600080825260208201909252600f60f81b9b939a50919850469750309650945092509050565b60006107756107d2565b65ffffffffffff1682106107c75760405162461bcd60e51b815260206004820152601960248201527804552433230566f7465733a20667574757265206c6f6f6b757603c1b60448201526064016105bd565b61050a600b8361141a565b600061053e43610f3a565b6060600480546104739061220a565b6001600160a01b0381166000908152600a6020526040812054801561085b576001600160a01b0383166000908152600a60205260409020805460001983019081106108395761083961227d565b60009182526020909120015464010000000090046001600160e01b031661085e565b60005b6001600160e01b03169392505050565b600081116108be5760405162461bcd60e51b815260206004820152601960248201527f496e76616c696420737461626c65636f696e20616d6f756e740000000000000060448201526064016105bd565b6105f9828261162a565b600033816108d68286610beb565b9050838110156109365760405162461bcd60e51b815260206004820152602560248201527f45524332303a2064656372656173656420616c6c6f77616e63652062656c6f77604482015264207a65726f60d81b60648201526084016105bd565b6105298286868403610fad565b600033610504818585611145565b834211156109a15760405162461bcd60e51b815260206004820152601d60248201527f4552433230566f7465733a207369676e6174757265206578706972656400000060448201526064016105bd565b604080517fe48329057bfd03d55e49b547132e39cffd9c1820ad7b9d4c5307691425d15adf60208201526001600160a01b038816918101919091526060810186905260808101859052600090610a1b90610a139060a00160405160208183030381529060405280519060200120611634565b858585611661565b9050610a2681611689565b8614610a745760405162461bcd60e51b815260206004820152601960248201527f4552433230566f7465733a20696e76616c6964206e6f6e63650000000000000060448201526064016105bd565b610a7e818861150d565b50505050505050565b83421115610ad75760405162461bcd60e51b815260206004820152601d60248201527f45524332305065726d69743a206578706972656420646561646c696e6500000060448201526064016105bd565b60007f6e71edae12b1b97f4d1f60370fef10105fa2faae0126114a169c64845d6126c9888888610b068c611689565b6040805160208101969096526001600160a01b0394851690860152929091166060840152608083015260a082015260c0810186905260e0016040516020818303038152906040528051906020012090506000610b6182611634565b90506000610b7182878787611661565b9050896001600160a01b0316816001600160a01b031614610bd45760405162461bcd60e51b815260206004820152601e60248201527f45524332305065726d69743a20696e76616c6964207369676e6174757265000060448201526064016105bd565b610bdf8a8a8a610fad565b50505050505050505050565b6001600160a01b03918216600090815260016020908152604080832093909416825291909152205490565b60408051808201909152600080825260208201526001600160a01b0383166000908152600a60205260409020805463ffffffff8416908110610c5a57610c5a61227d565b60009182526020918290206040805180820190915291015463ffffffff8116825264010000000090046001600160e01b0316918101919091529392505050565b6000602083511015610cb657610caf836116b1565b905061050a565b81610cc184826122e1565b5060ff905061050a565b90565b610cd88282610d5e565b6002546001600160e01b031015610d4a5760405162461bcd60e51b815260206004820152603060248201527f4552433230566f7465733a20746f74616c20737570706c79207269736b73206f60448201526f766572666c6f77696e6720766f74657360801b60648201526084016105bd565b610d58600b610e25836116ef565b50505050565b6001600160a01b038216610db45760405162461bcd60e51b815260206004820152601f60248201527f45524332303a206d696e7420746f20746865207a65726f20616464726573730060448201526064016105bd565b8060026000828254610dc69190612254565b90915550506001600160a01b038216600081815260208181526040808320805486019055518481527fddf252ad1be2c89b69c2b068fc378daa952ba7f163c4a11628f55a4df523b3ef910160405180910390a36105f960008383611864565b60006105e88284612254565b60006001600160e01b03821115610e9a5760405162461bcd60e51b815260206004820152602760248201527f53616665436173743a2076616c756520646f65736e27742066697420696e20326044820152663234206269747360c81b60648201526084016105bd565b5090565b600063ffffffff821115610e9a5760405162461bcd60e51b815260206004820152602660248201527f53616665436173743a2076616c756520646f65736e27742066697420696e203360448201526532206269747360d01b60648201526084016105bd565b6001600160a01b03838116600090815260096020526040808220548584168352912054610f359291821691168361186f565b505050565b600065ffffffffffff821115610e9a5760405162461bcd60e51b815260206004820152602660248201527f53616665436173743a2076616c756520646f65736e27742066697420696e203460448201526538206269747360d01b60648201526084016105bd565b60006105e882846123a1565b6001600160a01b03831661100f5760405162461bcd60e51b8152602060048201526024808201527f45524332303a20617070726f76652066726f6d20746865207a65726f206164646044820152637265737360e01b60648201526084016105bd565b6001600160a01b0382166110705760405162461bcd60e51b815260206004820152602260248201527f45524332303a20617070726f766520746f20746865207a65726f206164647265604482015261737360f01b60648201526084016105bd565b6001600160a01b0383811660008181526001602090815260408083209487168084529482529182902085905590518481527f8c5be1e5ebec7d5bd14f71427d1e84f3dd0314c0f7b2291e5b200ac8c7c3b925910160405180910390a3505050565b60006110dd8484610beb565b90506000198114610d5857818110156111385760405162461bcd60e51b815260206004820152601d60248201527f45524332303a20696e73756666696369656e7420616c6c6f77616e636500000060448201526064016105bd565b610d588484848403610fad565b6001600160a01b0383166111a95760405162461bcd60e51b815260206004820152602560248201527f45524332303a207472616e736665722066726f6d20746865207a65726f206164604482015264647265737360d81b60648201526084016105bd565b6001600160a01b03821661120b5760405162461bcd60e51b815260206004820152602360248201527f45524332303a207472616e7366657220746f20746865207a65726f206164647260448201526265737360e81b60648201526084016105bd565b6001600160a01b038316600090815260208190526040902054818110156112835760405162461bcd60e51b815260206004820152602660248201527f45524332303a207472616e7366657220616d6f756e7420657863656564732062604482015265616c616e636560d01b60648201526084016105bd565b6001600160a01b03848116600081815260208181526040808320878703905593871680835291849020805487019055925185815290927fddf252ad1be2c89b69c2b068fc378daa952ba7f163c4a11628f55a4df523b3ef910160405180910390a3610d58848484611864565b6000306001600160a01b037f00000000000000000000000000000000000000000000000000000000000000001614801561134857507f000000000000000000000000000000000000000000000000000000000000000046145b1561137257507f000000000000000000000000000000000000000000000000000000000000000090565b61053e604080517f8b73c3c69bb8fe3d512ecc4cf759cc79239f7b179b0ffacaa9a75d522b39400f60208201527f0000000000000000000000000000000000000000000000000000000000000000918101919091527f000000000000000000000000000000000000000000000000000000000000000060608201524660808201523060a082015260009060c00160405160208183030381529060405280519060200120905090565b815460009081816005811115611474576000611435846119ac565b61143f90856123a1565b600088815260209020909150869082015463ffffffff16111561146457809150611472565b61146f816001612254565b92505b505b808210156114c15760006114888383611a94565b600088815260209020909150869082015463ffffffff1611156114ad578091506114bb565b6114b8816001612254565b92505b50611474565b80156114ed576000868152602090208101600019015464010000000090046001600160e01b03166114f0565b60005b6001600160e01b03169695505050505050565b6105f98282610cce565b6001600160a01b038281166000818152600960208181526040808420805485845282862054949093528787166001600160a01b03198416811790915590519190951694919391928592917f3134e8a2e6d97e929a7e54011ea5485d7d196dd5f0ba4d4ef95803e8e3fc257f9190a4610d5882848361186f565b606060ff831461159957610caf83611aaf565b8180546115a59061220a565b80601f01602080910402602001604051908101604052809291908181526020018280546115d19061220a565b801561161e5780601f106115f35761010080835404028352916020019161161e565b820191906000526020600020905b81548152906001019060200180831161160157829003601f168201915b5050505050905061050a565b6105f98282611aee565b600061050a6116416112ef565b8360405161190160f01b8152600281019290925260228201526042902090565b600080600061167287878787611b06565b9150915061167f81611bca565b5095945050505050565b6001600160a01b03811660009081526007602052604090208054600181018255905b50919050565b600080829050601f815111156116dc578260405163305a27a960e01b81526004016105bd9190611f65565b80516116e7826123b4565b179392505050565b8254600090819081811561173c5760008781526020902082016000190160408051808201909152905463ffffffff8116825264010000000090046001600160e01b03166020820152611751565b60408051808201909152600080825260208201525b905080602001516001600160e01b0316935061177184868863ffffffff16565b925060008211801561179b57506117866107d2565b65ffffffffffff16816000015163ffffffff16145b156117e0576117a983610e31565b60008881526020902083016000190180546001600160e01b03929092166401000000000263ffffffff90921691909117905561185a565b8660405180604001604052806118046117f76107d2565b65ffffffffffff16610e9e565b63ffffffff16815260200161181886610e31565b6001600160e01b0390811690915282546001810184556000938452602093849020835194909301519091166401000000000263ffffffff909316929092179101555b5050935093915050565b610f35838383610f03565b816001600160a01b0316836001600160a01b0316141580156118915750600081115b15610f35576001600160a01b0383161561191f576001600160a01b0383166000908152600a6020526040812081906118cc90610fa1856116ef565b91509150846001600160a01b03167fdec2bacdd2f05b59de34da9b523dff8be42e5e38e818c82fdb0bae774387a7248383604051611914929190918252602082015260400190565b60405180910390a250505b6001600160a01b03821615610f35576001600160a01b0382166000908152600a60205260408120819061195590610e25856116ef565b91509150836001600160a01b03167fdec2bacdd2f05b59de34da9b523dff8be42e5e38e818c82fdb0bae774387a724838360405161199d929190918252602082015260400190565b60405180910390a25050505050565b6000816000036119be57506000919050565b600060016119cb84611d14565b901c6001901b905060018184816119e4576119e46123d8565b048201901c905060018184816119fc576119fc6123d8565b048201901c90506001818481611a1457611a146123d8565b048201901c90506001818481611a2c57611a2c6123d8565b048201901c90506001818481611a4457611a446123d8565b048201901c90506001818481611a5c57611a5c6123d8565b048201901c90506001818481611a7457611a746123d8565b048201901c90506105e881828581611a8e57611a8e6123d8565b04611da8565b6000611aa360028484186123ee565b6105e890848416612254565b60606000611abc83611dbe565b604080516020808252818301909252919250600091906020820181803683375050509182525060208101929092525090565b611af88282611de6565b610d58600b610fa1836116ef565b6000807f7fffffffffffffffffffffffffffffff5d576e7357a4501ddfe92f46681b20a0831115611b3d5750600090506003611bc1565b6040805160008082526020820180845289905260ff881692820192909252606081018690526080810185905260019060a0016020604051602081039080840390855afa158015611b91573d6000803e3d6000fd5b5050604051601f1901519150506001600160a01b038116611bba57600060019250925050611bc1565b9150600090505b94509492505050565b6000816004811115611bde57611bde612410565b03611be65750565b6001816004811115611bfa57611bfa612410565b03611c475760405162461bcd60e51b815260206004820152601860248201527f45434453413a20696e76616c6964207369676e6174757265000000000000000060448201526064016105bd565b6002816004811115611c5b57611c5b612410565b03611ca85760405162461bcd60e51b815260206004820152601f60248201527f45434453413a20696e76616c6964207369676e6174757265206c656e6774680060448201526064016105bd565b6003816004811115611cbc57611cbc612410565b0361069f5760405162461bcd60e51b815260206004820152602260248201527f45434453413a20696e76616c6964207369676e6174757265202773272076616c604482015261756560f01b60648201526084016105bd565b600080608083901c15611d2957608092831c92015b604083901c15611d3b57604092831c92015b602083901c15611d4d57602092831c92015b601083901c15611d5f57601092831c92015b600883901c15611d7157600892831c92015b600483901c15611d8357600492831c92015b600283901c15611d9557600292831c92015b600183901c1561050a5760010192915050565b6000818310611db757816105e8565b5090919050565b600060ff8216601f81111561050a57604051632cd44ac360e21b815260040160405180910390fd5b6001600160a01b038216611e465760405162461bcd60e51b815260206004820152602160248201527f45524332303a206275726e2066726f6d20746865207a65726f206164647265736044820152607360f81b60648201526084016105bd565b6001600160a01b03821660009081526020819052604090205481811015611eba5760405162461bcd60e51b815260206004820152602260248201527f45524332303a206275726e20616d6f756e7420657863656564732062616c616e604482015261636560f01b60648201526084016105bd565b6001600160a01b0383166000818152602081815260408083208686039055600280548790039055518581529192917fddf252ad1be2c89b69c2b068fc378daa952ba7f163c4a11628f55a4df523b3ef910160405180910390a3610f3583600084611864565b6000815180845260005b81811015611f4557602081850181015186830182015201611f29565b506000602082860101526020601f19601f83011685010191505092915050565b6020815260006105e86020830184611f1f565b80356001600160a01b0381168114611f8f57600080fd5b919050565b60008060408385031215611fa757600080fd5b611fb083611f78565b946020939093013593505050565b600080600060608486031215611fd357600080fd5b611fdc84611f78565b9250611fea60208501611f78565b9150604084013590509250925092565b60006020828403121561200c57600080fd5b6105e882611f78565b60ff60f81b881681526000602060e08184015261203560e084018a611f1f565b8381036040850152612047818a611f1f565b606085018990526001600160a01b038816608086015260a0850187905284810360c0860152855180825283870192509083019060005b818110156120995783518352928401929184019160010161207d565b50909c9b505050505050505050505050565b6000602082840312156120bd57600080fd5b5035919050565b803560ff81168114611f8f57600080fd5b60008060008060008060c087890312156120ee57600080fd5b6120f787611f78565b95506020870135945060408701359350612113606088016120c4565b92506080870135915060a087013590509295509295509295565b600080600080600080600060e0888a03121561214857600080fd5b61215188611f78565b965061215f60208901611f78565b9550604088013594506060880135935061217b608089016120c4565b925060a0880135915060c0880135905092959891949750929550565b600080604083850312156121aa57600080fd5b6121b383611f78565b91506121c160208401611f78565b90509250929050565b600080604083850312156121dd57600080fd5b6121e683611f78565b9150602083013563ffffffff811681146121ff57600080fd5b809150509250929050565b600181811c9082168061221e57607f821691505b6020821081036116ab57634e487b7160e01b600052602260045260246000fd5b634e487b7160e01b600052601160045260246000fd5b8082018082111561050a5761050a61223e565b634e487b7160e01b600052604160045260246000fd5b634e487b7160e01b600052603260045260246000fd5b601f821115610f3557600081815260208120601f850160051c810160208610156122ba5750805b601f850160051c820191505b818110156122d9578281556001016122c6565b505050505050565b815167ffffffffffffffff8111156122fb576122fb612267565b61230f81612309845461220a565b84612293565b602080601f831160018114612344576000841561232c5750858301515b600019600386901b1c1916600185901b1785556122d9565b600085815260208120601f198616915b8281101561237357888601518255948401946001909101908401612354565b50858210156123915787850151600019600388901b60f8161c191681555b5050505050600190811b01905550565b8181038181111561050a5761050a61223e565b805160208083015191908110156116ab5760001960209190910360031b1b16919050565b634e487b7160e01b600052601260045260246000fd5b60008261240b57634e487b7160e01b600052601260045260246000fd5b500490565b634e487b7160e01b600052602160045260246000fdfea26469706673582212205495e7be75eb52c9d0b14d47cb366ea45abdac9847034906c8ea43e1e4657a6b64736f6c63430008110033dec2bacdd2f05b59de34da9b523dff8be42e5e38e818c82fdb0bae774387a724",
    "linkReferences": {}
  },
  "methodIdentifiers": {
    "CLOCK_MODE()": "4bf5d7e9",
    "DOMAIN_SEPARATOR()": "3644e515",
    "allowance(address,address)": "dd62ed3e",
    "approve(address,uint256)": "095ea7b3",
    "balanceOf(address)": "70a08231",
    "burn(address,uint256)": "9dc29fac",
    "checkpoints(address,uint32)": "f1127ed8",
    "clock()": "91ddadf4",
    "decimals()": "313ce567",
    "decreaseAllowance(address,uint256)": "a457c2d7",
    "delegate(address)": "5c19a95c",
    "delegateBySig(address,uint256,uint256,uint8,bytes32,bytes32)": "c3cda520",
    "delegates(address)": "587cde1e",
    "eip712Domain()": "84b0196e",
    "getPastTotalSupply(uint256)": "8e539e8c",
    "getPastVotes(address,uint256)": "3a46b1a8",
    "getVotes(address)": "9ab24eb0",
    "increaseAllowance(address,uint256)": "39509351",
    "mint(address,uint256)": "40c10f19",
    "name()": "06fdde03",
    "nonces(address)": "7ecebe00",
    "numCheckpoints(address)": "6fcfff45",
    "permit(address,address,uint256,uint256,uint8,bytes32,bytes32)": "d505accf",
    "s_maxSupply()": "5d641847",
    "symbol()": "95d89b41",
    "totalSupply()": "18160ddd",
    "transfer(address,uint256)": "a9059cbb",
    "transferFrom(address,address,uint256)": "23b872dd"
  },
  "id": 40
}