{
  "abi": [
    {
      "inputs": [
        {
          "internalType": "address",
          "name": "_tokenAddress",
          "type": "address"
        },
        {
          "internalType": "uint8",
          "name": "_decimals",
          "type": "uint8"
        }
      ],
      "stateMutability": "nonpayable",
      "type": "constructor"
    },
    {
      "inputs": [],
      "name": "InsufficientTokenBalance",
      "type": "error"
    },
    {
      "inputs": [],
      "name": "InsufficientTomBalance",
      "type": "error"
    },
    {
      "inputs": [],
      "name": "ItemSoldOut",
      "type": "error"
    },
    {
      "inputs": [
        {
          "internalType": "uint256",
          "name": "itemId",
          "type": "uint256"
        }
      ],
      "name": "NotListed",
      "type": "error"
    },
    {
      "inputs": [],
      "name": "PriceMustBeAboveZero",
      "type": "error"
    },
    {
      "inputs": [
        {
          "internalType": "address",
          "name": "user",
          "type": "address"
        }
      ],
      "name": "UserAlreadyExists",
      "type": "error"
    },
    {
      "inputs": [
        {
          "internalType": "address",
          "name": "user",
          "type": "address"
        }
      ],
      "name": "UserDoesNotExist",
      "type": "error"
    },
    {
      "anonymous": false,
      "inputs": [
        {
          "indexed": true,
          "internalType": "address",
          "name": "seller",
          "type": "address"
        },
        {
          "indexed": true,
          "internalType": "uint256",
          "name": "itemId",
          "type": "uint256"
        }
      ],
      "name": "ItemCanceled",
      "type": "event"
    },
    {
      "anonymous": false,
      "inputs": [
        {
          "indexed": true,
          "internalType": "address",
          "name": "seller",
          "type": "address"
        },
        {
          "indexed": true,
          "internalType": "uint256",
          "name": "itemId",
          "type": "uint256"
        },
        {
          "indexed": false,
          "internalType": "string",
          "name": "name",
          "type": "string"
        },
        {
          "indexed": false,
          "internalType": "string",
          "name": "image",
          "type": "string"
        },
        {
          "indexed": false,
          "internalType": "string",
          "name": "description",
          "type": "string"
        },
        {
          "indexed": false,
          "internalType": "uint256",
          "name": "price",
          "type": "uint256"
        },
        {
          "indexed": false,
          "internalType": "uint256",
          "name": "quantity",
          "type": "uint256"
        },
        {
          "indexed": false,
          "internalType": "uint256",
          "name": "postingFee",
          "type": "uint256"
        }
      ],
      "name": "ItemListed",
      "type": "event"
    },
    {
      "anonymous": false,
      "inputs": [
        {
          "indexed": true,
          "internalType": "address",
          "name": "seller",
          "type": "address"
        },
        {
          "indexed": true,
          "internalType": "uint256",
          "name": "itemId",
          "type": "uint256"
        },
        {
          "indexed": false,
          "internalType": "string",
          "name": "name",
          "type": "string"
        },
        {
          "indexed": false,
          "internalType": "string",
          "name": "image",
          "type": "string"
        },
        {
          "indexed": false,
          "internalType": "string",
          "name": "description",
          "type": "string"
        },
        {
          "indexed": false,
          "internalType": "uint256",
          "name": "price",
          "type": "uint256"
        },
        {
          "indexed": false,
          "internalType": "uint256",
          "name": "quantity",
          "type": "uint256"
        },
        {
          "indexed": false,
          "internalType": "uint256",
          "name": "postingFee",
          "type": "uint256"
        }
      ],
      "name": "ItemUpdated",
      "type": "event"
    },
    {
      "anonymous": false,
      "inputs": [
        {
          "indexed": true,
          "internalType": "address",
          "name": "previousOwner",
          "type": "address"
        },
        {
          "indexed": true,
          "internalType": "address",
          "name": "newOwner",
          "type": "address"
        }
      ],
      "name": "OwnershipTransferred",
      "type": "event"
    },
    {
      "anonymous": false,
      "inputs": [
        {
          "indexed": true,
          "internalType": "address",
          "name": "user",
          "type": "address"
        },
        {
          "indexed": false,
          "internalType": "uint256",
          "name": "rewards",
          "type": "uint256"
        }
      ],
      "name": "RewardsClaimed",
      "type": "event"
    },
    {
      "anonymous": false,
      "inputs": [
        {
          "indexed": true,
          "internalType": "address",
          "name": "buyer",
          "type": "address"
        },
        {
          "indexed": false,
          "internalType": "uint256",
          "name": "amount",
          "type": "uint256"
        }
      ],
      "name": "TokenBought",
      "type": "event"
    },
    {
      "anonymous": false,
      "inputs": [
        {
          "indexed": true,
          "internalType": "address",
          "name": "user",
          "type": "address"
        }
      ],
      "name": "userRegistered",
      "type": "event"
    },
    {
      "inputs": [
        {
          "internalType": "address",
          "name": "referedBy",
          "type": "address"
        }
      ],
      "name": "UseReferalLink",
      "outputs": [],
      "stateMutability": "nonpayable",
      "type": "function"
    },
    {
      "inputs": [
        {
          "internalType": "address",
          "name": "_tomAddress",
          "type": "address"
        },
        {
          "internalType": "address",
          "name": "_escrowAddress",
          "type": "address"
        }
      ],
      "name": "activate",
      "outputs": [],
      "stateMutability": "nonpayable",
      "type": "function"
    },
    {
      "inputs": [
        {
          "internalType": "uint256",
          "name": "tokenAmount",
          "type": "uint256"
        }
      ],
      "name": "buyTOM",
      "outputs": [],
      "stateMutability": "nonpayable",
      "type": "function"
    },
    {
      "inputs": [
        {
          "internalType": "uint256",
          "name": "price",
          "type": "uint256"
        },
        {
          "internalType": "uint256",
          "name": "quantity",
          "type": "uint256"
        }
      ],
      "name": "calculatePostingFee",
      "outputs": [
        {
          "internalType": "uint256",
          "name": "postingFee",
          "type": "uint256"
        }
      ],
      "stateMutability": "view",
      "type": "function"
    },
    {
      "inputs": [
        {
          "internalType": "uint256",
          "name": "tokenAmount",
          "type": "uint256"
        }
      ],
      "name": "calculateTOMAmount",
      "outputs": [
        {
          "internalType": "uint256",
          "name": "",
          "type": "uint256"
        }
      ],
      "stateMutability": "view",
      "type": "function"
    },
    {
      "inputs": [
        {
          "internalType": "uint256",
          "name": "itemId",
          "type": "uint256"
        }
      ],
      "name": "cancelListing",
      "outputs": [],
      "stateMutability": "nonpayable",
      "type": "function"
    },
    {
      "inputs": [
        {
          "internalType": "uint256",
          "name": "orderId",
          "type": "uint256"
        }
      ],
      "name": "cancelOrder",
      "outputs": [],
      "stateMutability": "nonpayable",
      "type": "function"
    },
    {
      "inputs": [],
      "name": "claimRewards",
      "outputs": [],
      "stateMutability": "nonpayable",
      "type": "function"
    },
    {
      "inputs": [
        {
          "internalType": "uint256",
          "name": "orderId",
          "type": "uint256"
        }
      ],
      "name": "confirmDelivery",
      "outputs": [],
      "stateMutability": "nonpayable",
      "type": "function"
    },
    {
      "inputs": [],
      "name": "getEscrowAddress",
      "outputs": [
        {
          "internalType": "address",
          "name": "",
          "type": "address"
        }
      ],
      "stateMutability": "view",
      "type": "function"
    },
    {
      "inputs": [
        {
          "internalType": "uint256",
          "name": "itemId",
          "type": "uint256"
        }
      ],
      "name": "getItem",
      "outputs": [
        {
          "internalType": "string",
          "name": "",
          "type": "string"
        },
        {
          "internalType": "string",
          "name": "",
          "type": "string"
        },
        {
          "internalType": "string",
          "name": "",
          "type": "string"
        },
        {
          "internalType": "uint256",
          "name": "",
          "type": "uint256"
        },
        {
          "internalType": "uint256",
          "name": "",
          "type": "uint256"
        },
        {
          "internalType": "uint256",
          "name": "",
          "type": "uint256"
        },
        {
          "internalType": "address",
          "name": "",
          "type": "address"
        }
      ],
      "stateMutability": "view",
      "type": "function"
    },
    {
      "inputs": [
        {
          "internalType": "address",
          "name": "user",
          "type": "address"
        }
      ],
      "name": "getSpentAmount",
      "outputs": [
        {
          "internalType": "uint256",
          "name": "",
          "type": "uint256"
        }
      ],
      "stateMutability": "view",
      "type": "function"
    },
    {
      "inputs": [],
      "name": "getTokenAddress",
      "outputs": [
        {
          "internalType": "address",
          "name": "",
          "type": "address"
        }
      ],
      "stateMutability": "view",
      "type": "function"
    },
    {
      "inputs": [],
      "name": "getTomAddress",
      "outputs": [
        {
          "internalType": "address",
          "name": "",
          "type": "address"
        }
      ],
      "stateMutability": "view",
      "type": "function"
    },
    {
      "inputs": [
        {
          "internalType": "uint256",
          "name": "key",
          "type": "uint256"
        }
      ],
      "name": "getUser",
      "outputs": [
        {
          "internalType": "address",
          "name": "",
          "type": "address"
        }
      ],
      "stateMutability": "view",
      "type": "function"
    },
    {
      "inputs": [
        {
          "internalType": "address",
          "name": "user",
          "type": "address"
        }
      ],
      "name": "isRegistered",
      "outputs": [
        {
          "internalType": "bool",
          "name": "",
          "type": "bool"
        }
      ],
      "stateMutability": "view",
      "type": "function"
    },
    {
      "inputs": [
        {
          "internalType": "string",
          "name": "name",
          "type": "string"
        },
        {
          "internalType": "string",
          "name": "image",
          "type": "string"
        },
        {
          "internalType": "string",
          "name": "description",
          "type": "string"
        },
        {
          "internalType": "uint256",
          "name": "price",
          "type": "uint256"
        },
        {
          "internalType": "uint256",
          "name": "quantity",
          "type": "uint256"
        }
      ],
      "name": "listItem",
      "outputs": [],
      "stateMutability": "nonpayable",
      "type": "function"
    },
    {
      "inputs": [
        {
          "internalType": "uint256",
          "name": "itemId",
          "type": "uint256"
        },
        {
          "internalType": "uint256",
          "name": "quantity",
          "type": "uint256"
        }
      ],
      "name": "orderItem",
      "outputs": [
        {
          "internalType": "uint256",
          "name": "",
          "type": "uint256"
        }
      ],
      "stateMutability": "nonpayable",
      "type": "function"
    },
    {
      "inputs": [],
      "name": "owner",
      "outputs": [
        {
          "internalType": "address",
          "name": "",
          "type": "address"
        }
      ],
      "stateMutability": "view",
      "type": "function"
    },
    {
      "inputs": [
        {
          "internalType": "address",
          "name": "user",
          "type": "address"
        }
      ],
      "name": "registerUser",
      "outputs": [],
      "stateMutability": "nonpayable",
      "type": "function"
    },
    {
      "inputs": [],
      "name": "renounceOwnership",
      "outputs": [],
      "stateMutability": "nonpayable",
      "type": "function"
    },
    {
      "inputs": [
        {
          "internalType": "address",
          "name": "newOwner",
          "type": "address"
        }
      ],
      "name": "transferOwnership",
      "outputs": [],
      "stateMutability": "nonpayable",
      "type": "function"
    },
    {
      "inputs": [
        {
          "internalType": "uint256",
          "name": "itemId",
          "type": "uint256"
        },
        {
          "internalType": "string",
          "name": "name",
          "type": "string"
        },
        {
          "internalType": "string",
          "name": "image",
          "type": "string"
        },
        {
          "internalType": "string",
          "name": "description",
          "type": "string"
        },
        {
          "internalType": "uint256",
          "name": "price",
          "type": "uint256"
        },
        {
          "internalType": "uint256",
          "name": "quantity",
          "type": "uint256"
        }
      ],
      "name": "updateItem",
      "outputs": [],
      "stateMutability": "nonpayable",
      "type": "function"
    }
  ],
  "bytecode": {
    "object": "0x60a06040523480156200001157600080fd5b5060405162003004380380620030048339810160408190526200003491620000c0565b6200003f3362000070565b60018055600480546001600160a01b0319166001600160a01b03939093169290921790915560ff166080526200010f565b600080546001600160a01b038381166001600160a01b0319831681178455604051919092169283917f8be0079c531659141344cd1fd0a4f28419497f9722a3daafe3b4186f6b6457e09190a35050565b60008060408385031215620000d457600080fd5b82516001600160a01b0381168114620000ec57600080fd5b602084015190925060ff811681146200010457600080fd5b809150509250929050565b608051612ed26200013260003960008181610df501526115dc0152612ed26000f3fe608060405234801561001057600080fd5b506004361061014d5760003560e01c8063715018a6116100c3578063b0467deb1161007c578063b0467deb146102c9578063c3c5a547146102dc578063ce16dcc8146102ff578063f2fde38b14610312578063f75b59f414610325578063fd84cb971461033857600080fd5b8063715018a6146102665780637f21a48a1461026e57806386664124146102815780638da5cb5b14610292578063918e3b4c146102a35780639555c4db146102b657600080fd5b80633129e773116101155780633129e773146101c8578063372500ab146101ee57806347f5546a146101f65780634e10efbd14610209578063514fcac7146102405780636557b07d1461025357600080fd5b806310fe9ae814610152578063122fd48a1461017c5780631627eaf21461018d5780632199d5cd146101a2578063305a67a8146101b5575b600080fd5b6004546001600160a01b03165b6040516001600160a01b0390911681526020015b60405180910390f35b6003546001600160a01b031661015f565b6101a061019b36600461272f565b61034b565b005b6101a06101b03660046127de565b61065c565b6101a06101c33660046127fb565b61076c565b6101db6101d63660046127fb565b610b40565b604051610173979695949392919061285a565b6101a0610d49565b6101a06102043660046127fb565b610f59565b6102326102173660046127de565b6001600160a01b031660009081526006602052604090205490565b604051908152602001610173565b6101a061024e3660046127fb565b611128565b6101a06102613660046127de565b6112f9565b6101a061159d565b61023261027c3660046128c3565b6115b1565b6002546001600160a01b031661015f565b6000546001600160a01b031661015f565b6102326102b13660046127fb565b6115d5565b6101a06102c43660046128e5565b6116a9565b61015f6102d73660046127fb565b6116df565b6102ef6102ea3660046127de565b61170f565b6040519015158152602001610173565b61023261030d3660046128c3565b61177a565b6101a06103203660046127de565b611ced565b6101a061033336600461291e565b611d66565b6101a06103463660046127fb565b612397565b60075433906000805b828110156103ac57836001600160a01b031660078281548110610379576103796129c2565b6000918252602090912001546001600160a01b03160361039c57600191506103ac565b6103a5816129ee565b9050610354565b508015156000036103e057604051631efbf66f60e01b81526001600160a01b03841660048201526024015b60405180910390fd5b60006103ec86866115b1565b6002546040516370a0823160e01b815233600482015291925082916001600160a01b03909116906370a0823190602401602060405180830381865afa158015610439573d6000803e3d6000fd5b505050506040513d601f19601f8201168201806040525081019061045d9190612a07565b101561047c576040516366881c2f60e01b815260040160405180910390fd5b6000861161049d5760405163e1abbfc560e01b815260040160405180910390fd5b600a8110156104aa5750600a5b6002546040516323b872dd60e01b8152336004820152306024820152604481018390526001600160a01b03909116906323b872dd906064016020604051808303816000875af1158015610501573d6000803e3d6000fd5b505050506040513d601f19601f820116820180604052508101906105259190612a20565b506040805160e0810182528a8152602081018a9052908101889052606081018790526080810186905260a081018290523360c0820152600061056660055490565b60008181526008602052604090208351919250839181906105879082612aca565b506020820151600182019061059c9082612aca565b50604082015160028201906105b19082612aca565b50606082015160038201556080820151600482015560a082015160058083019190915560c090920151600690910180546001600160a01b0319166001600160a01b039092169190911790558054600101905580336001600160a01b03167f5a4cc338d4584a51165f295f71e3a83c61557245edfbeae1c22988058d4236d08d8d8d8d8d8a60405161064796959493929190612b8a565b60405180910390a35050505050505050505050565b600754819060005b818110156106d757826001600160a01b031660078281548110610689576106896129c2565b6000918252602090912001546001600160a01b0316036106c7576040516308fb92eb60e21b81526001600160a01b03841660048201526024016103d7565b6106d0816129ee565b9050610664565b50604080516020808201835260008083526001600160a01b03871680825260069092528381209251909255600780546001810182559083527fa66cc928b5edb82af9bd49922954155ab7b0942694bea4ce44661d9a8736c6880180546001600160a01b0319168217905591517fbccbc36cc6dac185f9905c12b69a310c4d0b82bdfbc3bbbb8e3d2ff33c8176b09190a2505050565b60075433906000805b828110156107cd57836001600160a01b03166007828154811061079a5761079a6129c2565b6000918252602090912001546001600160a01b0316036107bd57600191506107cd565b6107c6816129ee565b9050610775565b508015156000036107fc57604051631efbf66f60e01b81526001600160a01b03841660048201526024016103d7565b836000600860008381526020019081526020016000206040518060e001604052908160008201805461082d90612a42565b80601f016020809104026020016040519081016040528092919081815260200182805461085990612a42565b80156108a65780601f1061087b576101008083540402835291602001916108a6565b820191906000526020600020905b81548152906001019060200180831161088957829003601f168201915b505050505081526020016001820180546108bf90612a42565b80601f01602080910402602001604051908101604052809291908181526020018280546108eb90612a42565b80156109385780601f1061090d57610100808354040283529160200191610938565b820191906000526020600020905b81548152906001019060200180831161091b57829003601f168201915b5050505050815260200160028201805461095190612a42565b80601f016020809104026020016040519081016040528092919081815260200182805461097d90612a42565b80156109ca5780601f1061099f576101008083540402835291602001916109ca565b820191906000526020600020905b8154815290600101906020018083116109ad57829003601f168201915b5050509183525050600382015460208201526004820154604082015260058201546060808301919091526006909201546001600160a01b0316608090910152810151909150610a2f5760405163068bb67560e51b8152600481018390526024016103d7565b6000868152600860205260409020600601546001600160a01b0316331480610a6157506000546001600160a01b031633145b610aad5760405162461bcd60e51b815260206004820152601e60248201527f43616c6c6572206d7573742062652053656c6c6572206f72204f776e6572000060448201526064016103d7565b600086815260086020526040812090610ac6828261263e565b610ad460018301600061263e565b610ae260028301600061263e565b506000600382018190556004820181905560058201819055600690910180546001600160a01b0319169055604051879133917ff86e54241e209ee4b38db8e64af9614b083d18f23c32f3293c8a87c6b8bf89439190a3505050505050565b600081815260086020526040812060038101546004820154600583015460068401548454606096879687969195869586958695939460018601946002870194919391926001600160a01b0316908790610b9890612a42565b80601f0160208091040260200160405190810160405280929190818152602001828054610bc490612a42565b8015610c115780601f10610be657610100808354040283529160200191610c11565b820191906000526020600020905b815481529060010190602001808311610bf457829003601f168201915b50505050509650858054610c2490612a42565b80601f0160208091040260200160405190810160405280929190818152602001828054610c5090612a42565b8015610c9d5780601f10610c7257610100808354040283529160200191610c9d565b820191906000526020600020905b815481529060010190602001808311610c8057829003601f168201915b50505050509550848054610cb090612a42565b80601f0160208091040260200160405190810160405280929190818152602001828054610cdc90612a42565b8015610d295780601f10610cfe57610100808354040283529160200191610d29565b820191906000526020600020905b815481529060010190602001808311610d0c57829003601f168201915b505050505094509650965096509650965096509650919395979092949650565b60075433906000805b82811015610daa57836001600160a01b031660078281548110610d7757610d776129c2565b6000918252602090912001546001600160a01b031603610d9a5760019150610daa565b610da3816129ee565b9050610d52565b50801515600003610dd957604051631efbf66f60e01b81526001600160a01b03841660048201526024016103d7565b610de161253b565b336000908152600660205260409020610e1b7f0000000000000000000000000000000000000000000000000000000000000000600a612cc6565b610e27906101f4612cd5565b81541015610e775760405162461bcd60e51b815260206004820152601c60248201527f4e6f7420656c696769626c6520666f722072657761726473207965740000000060448201526064016103d7565b6000610e99606483600001546007610e8f9190612cd5565b6102b19190612cec565b60025460405163a9059cbb60e01b8152336004820152602481018390529192506001600160a01b03169063a9059cbb906044016020604051808303816000875af1158015610eeb573d6000803e3d6000fd5b505050506040513d601f19601f82011682018060405250810190610f0f9190612a20565b506000825560405181815233907ffc30cddea38e2bf4d6ea7d3f9ed3b6ad7f176419f4963bd81318067a4aee73fe9060200160405180910390a25050610f5460018055565b505050565b60075433906000805b82811015610fba57836001600160a01b031660078281548110610f8757610f876129c2565b6000918252602090912001546001600160a01b031603610faa5760019150610fba565b610fb3816129ee565b9050610f62565b50801515600003610fe957604051631efbf66f60e01b81526001600160a01b03841660048201526024016103d7565b6000610ff4856115d5565b600480546040516323b872dd60e01b81523392810192909252306024830152604482018890529192506001600160a01b03909116906323b872dd906064016020604051808303816000875af1158015611051573d6000803e3d6000fd5b505050506040513d601f19601f820116820180604052508101906110759190612a20565b5060025460405163a9059cbb60e01b8152336004820152602481018390526001600160a01b039091169063a9059cbb906044016020604051808303816000875af11580156110c7573d6000803e3d6000fd5b505050506040513d601f19601f820116820180604052508101906110eb9190612a20565b5060405181815233907fa3a187cfc249a33f6c4046e8d418886eea8564f9dd214a32aa5ba08d9602b5439060200160405180910390a25050505050565b60075433906000805b8281101561118957836001600160a01b031660078281548110611156576111566129c2565b6000918252602090912001546001600160a01b0316036111795760019150611189565b611182816129ee565b9050611131565b508015156000036111b857604051631efbf66f60e01b81526001600160a01b03841660048201526024016103d7565b6111c061253b565b600354604051637796992960e01b8152600481018690523360248201526001600160a01b0390911690637796992990604401600060405180830381600087803b15801561120c57600080fd5b505af1158015611220573d6000803e3d6000fd5b505060035460405163d09ef24160e01b815260048101889052600093508392506001600160a01b039091169063d09ef2419060240160e060405180830381865afa158015611272573d6000803e3d6000fd5b505050506040513d601f19601f820116820180604052508101906112969190612d0e565b50506000838152600860205260408120939750909550919350909150505b828110156112e6576004820180549060006112ce836129ee565b919050555080806112de906129ee565b9150506112b4565b505050506112f360018055565b50505050565b60075481906000805b8281101561135a57836001600160a01b031660078281548110611327576113276129c2565b6000918252602090912001546001600160a01b03160361134a576001915061135a565b611353816129ee565b9050611302565b5080151560000361138957604051631efbf66f60e01b81526001600160a01b03841660048201526024016103d7565b61139161253b565b61139a3361065c565b6002546040805163313ce56760e01b815290516001600160a01b039092169163a9059cbb913391849163313ce5679160048083019260209291908290030181865afa1580156113ed573d6000803e3d6000fd5b505050506040513d601f19601f820116820180604052508101906114119190612d87565b61141c90600a612cc6565b611427906032612cd5565b6040516001600160e01b031960e085901b1681526001600160a01b03909216600483015260248201526044016020604051808303816000875af1158015611472573d6000803e3d6000fd5b505050506040513d601f19601f820116820180604052508101906114969190612a20565b506002546040805163313ce56760e01b815290516001600160a01b039092169163a9059cbb918791849163313ce5679160048083019260209291908290030181865afa1580156114ea573d6000803e3d6000fd5b505050506040513d601f19601f8201168201806040525081019061150e9190612d87565b61151990600a612cc6565b611524906032612cd5565b6040516001600160e01b031960e085901b1681526001600160a01b03909216600483015260248201526044016020604051808303816000875af115801561156f573d6000803e3d6000fd5b505050506040513d601f19601f820116820180604052508101906115939190612a20565b506112f360018055565b6115a5612594565b6115af60006125ee565b565b60006115ce6064836115c486600a612cd5565b610e8f9190612cd5565b9392505050565b60006116027f0000000000000000000000000000000000000000000000000000000000000000600a612cc6565b600260009054906101000a90046001600160a01b03166001600160a01b031663313ce5676040518163ffffffff1660e01b8152600401602060405180830381865afa158015611655573d6000803e3d6000fd5b505050506040513d601f19601f820116820180604052508101906116799190612d87565b61168490600a612cc6565b61168f600a85612cd5565b6116999190612cd5565b6116a39190612cec565b92915050565b6116b1612594565b600280546001600160a01b039384166001600160a01b03199182161790915560038054929093169116179055565b6000600782815481106116f4576116f46129c2565b6000918252602090912001546001600160a01b031692915050565b600754600090815b8181101561177057836001600160a01b03166007828154811061173c5761173c6129c2565b6000918252602090912001546001600160a01b031603611760575060019392505050565b611769816129ee565b9050611717565b5060009392505050565b6000826000600860008381526020019081526020016000206040518060e00160405290816000820180546117ad90612a42565b80601f01602080910402602001604051908101604052809291908181526020018280546117d990612a42565b80156118265780601f106117fb57610100808354040283529160200191611826565b820191906000526020600020905b81548152906001019060200180831161180957829003601f168201915b5050505050815260200160018201805461183f90612a42565b80601f016020809104026020016040519081016040528092919081815260200182805461186b90612a42565b80156118b85780601f1061188d576101008083540402835291602001916118b8565b820191906000526020600020905b81548152906001019060200180831161189b57829003601f168201915b505050505081526020016002820180546118d190612a42565b80601f01602080910402602001604051908101604052809291908181526020018280546118fd90612a42565b801561194a5780601f1061191f5761010080835404028352916020019161194a565b820191906000526020600020905b81548152906001019060200180831161192d57829003601f168201915b5050509183525050600382015460208201526004820154604082015260058201546060808301919091526006909201546001600160a01b03166080909101528101519091506119af5760405163068bb67560e51b8152600481018390526024016103d7565b60075433906000805b82811015611a1057836001600160a01b0316600782815481106119dd576119dd6129c2565b6000918252602090912001546001600160a01b031603611a005760019150611a10565b611a09816129ee565b90506119b8565b50801515600003611a3f57604051631efbf66f60e01b81526001600160a01b03841660048201526024016103d7565b611a4761253b565b60008881526008602052604081206004810154909190611a68908a90612daa565b1015611a86576040516254585f60e71b815260040160405180910390fd5b878160030154611a969190612cd5565b600480546040516370a0823160e01b815233928101929092526001600160a01b0316906370a0823190602401602060405180830381865afa158015611adf573d6000803e3d6000fd5b505050506040513d601f19601f82011682018060405250810190611b039190612a07565b1015611b2257604051637222ae5760e11b815260040160405180910390fd5b6000606482600401548a8460050154611b3b9190612cd5565b611b459190612cec565b611b50906046612cd5565b611b5a9190612cec565b90506000600360009054906101000a90046001600160a01b03166001600160a01b031663a645c3bc8460060160009054906101000a90046001600160a01b0316338e8e8860030154611bac9190612cd5565b6040516001600160e01b031960e087901b1681526001600160a01b03948516600482015293909216602484015260448301526064820152608481018d905260a4810185905260c4016020604051808303816000875af1158015611c13573d6000803e3d6000fd5b505050506040513d601f19601f82011682018060405250810190611c379190612a07565b905060005b8a811015611c6e57600484018054906000611c5683612dbd565b91905055508080611c66906129ee565b915050611c3c565b5060068301546003840154600485015460058601546040518f946001600160a01b0316937f33b76ad8c97c033088071a2f32eb30c337ade9d92bbab6217b3cb51189020d5c93611ccd938a936001850193600286019390929091612e50565b60405180910390a397505050611ce260018055565b505050505092915050565b611cf5612594565b6001600160a01b038116611d5a5760405162461bcd60e51b815260206004820152602660248201527f4f776e61626c653a206e6577206f776e657220697320746865207a65726f206160448201526564647265737360d01b60648201526084016103d7565b611d63816125ee565b50565b60075433906000805b82811015611dc757836001600160a01b031660078281548110611d9457611d946129c2565b6000918252602090912001546001600160a01b031603611db75760019150611dc7565b611dc0816129ee565b9050611d6f565b50801515600003611df657604051631efbf66f60e01b81526001600160a01b03841660048201526024016103d7565b886000600860008381526020019081526020016000206040518060e0016040529081600082018054611e2790612a42565b80601f0160208091040260200160405190810160405280929190818152602001828054611e5390612a42565b8015611ea05780601f10611e7557610100808354040283529160200191611ea0565b820191906000526020600020905b815481529060010190602001808311611e8357829003601f168201915b50505050508152602001600182018054611eb990612a42565b80601f0160208091040260200160405190810160405280929190818152602001828054611ee590612a42565b8015611f325780601f10611f0757610100808354040283529160200191611f32565b820191906000526020600020905b815481529060010190602001808311611f1557829003601f168201915b50505050508152602001600282018054611f4b90612a42565b80601f0160208091040260200160405190810160405280929190818152602001828054611f7790612a42565b8015611fc45780601f10611f9957610100808354040283529160200191611fc4565b820191906000526020600020905b815481529060010190602001808311611fa757829003601f168201915b5050509183525050600382015460208201526004820154604082015260058201546060808301919091526006909201546001600160a01b03166080909101528101519091506120295760405163068bb67560e51b8152600481018390526024016103d7565b60008b8152600860205260409020600601546001600160a01b0316331461208a5760405162461bcd60e51b815260206004820152601560248201527421b0b63632b91036bab9ba1031329029b2b63632b960591b60448201526064016103d7565b60008b8152600860205260409020600301546120a890600290612cec565b87116121105760405162461bcd60e51b815260206004820152603160248201527f4e6577207072696365206d757374206265206d6f7265207468616e2068616c66604482015270206f6620746865206f6c6420707269636560781b60648201526084016103d7565b60008b8152600860205260408120600501549061212d89896115b1565b9050818111156121d2576002546001600160a01b03166323b872dd33306121548686612daa565b6040516001600160e01b031960e086901b1681526001600160a01b03938416600482015292909116602483015260448201526064016020604051808303816000875af11580156121a8573d6000803e3d6000fd5b505050506040513d601f19601f820116820180604052508101906121cc9190612a20565b5061225f565b6002546001600160a01b031663a9059cbb336121ee8486612daa565b6040516001600160e01b031960e085901b1681526001600160a01b03909216600483015260248201526044016020604051808303816000875af1158015612239573d6000803e3d6000fd5b505050506040513d601f19601f8201168201806040525081019061225d9190612a20565b505b6040518060e001604052808d81526020018c81526020018b81526020018a8152602001898152602001828152602001336001600160a01b0316815250600860008f815260200190815260200160002060008201518160000190816122c39190612aca565b50602082015160018201906122d89082612aca565b50604082015160028201906122ed9082612aca565b50606082015181600301556080820151816004015560a0820151816005015560c08201518160060160006101000a8154816001600160a01b0302191690836001600160a01b031602179055509050508c336001600160a01b03167f33b76ad8c97c033088071a2f32eb30c337ade9d92bbab6217b3cb51189020d5c8e8e8e8e8e8860405161238096959493929190612b8a565b60405180910390a350505050505050505050505050565b60075433906000805b828110156123f857836001600160a01b0316600782815481106123c5576123c56129c2565b6000918252602090912001546001600160a01b0316036123e857600191506123f8565b6123f1816129ee565b90506123a0565b5080151560000361242757604051631efbf66f60e01b81526001600160a01b03841660048201526024016103d7565b61242f61253b565b600354604051631af23a5960e01b8152600481018690523360248201526001600160a01b0390911690631af23a5990604401600060405180830381600087803b15801561247b57600080fd5b505af115801561248f573d6000803e3d6000fd5b505060035460405163d09ef24160e01b815260048101889052600093506001600160a01b03909116915063d09ef2419060240160e060405180830381865afa1580156124df573d6000803e3d6000fd5b505050506040513d601f19601f820116820180604052508101906125039190612d0e565b505033600090815260066020526040812080549397508796509450925061252c91859150612e89565b909155505060018055506112f3565b60026001540361258d5760405162461bcd60e51b815260206004820152601f60248201527f5265656e7472616e637947756172643a207265656e7472616e742063616c6c0060448201526064016103d7565b6002600155565b6000546001600160a01b031633146115af5760405162461bcd60e51b815260206004820181905260248201527f4f776e61626c653a2063616c6c6572206973206e6f7420746865206f776e657260448201526064016103d7565b600080546001600160a01b038381166001600160a01b0319831681178455604051919092169283917f8be0079c531659141344cd1fd0a4f28419497f9722a3daafe3b4186f6b6457e09190a35050565b50805461264a90612a42565b6000825580601f1061265a575050565b601f016020900490600052602060002090810190611d6391905b808211156126885760008155600101612674565b5090565b634e487b7160e01b600052604160045260246000fd5b600082601f8301126126b357600080fd5b813567ffffffffffffffff808211156126ce576126ce61268c565b604051601f8301601f19908116603f011681019082821181831017156126f6576126f661268c565b8160405283815286602085880101111561270f57600080fd5b836020870160208301376000602085830101528094505050505092915050565b600080600080600060a0868803121561274757600080fd5b853567ffffffffffffffff8082111561275f57600080fd5b61276b89838a016126a2565b9650602088013591508082111561278157600080fd5b61278d89838a016126a2565b955060408801359150808211156127a357600080fd5b506127b0888289016126a2565b9598949750949560608101359550608001359392505050565b6001600160a01b0381168114611d6357600080fd5b6000602082840312156127f057600080fd5b81356115ce816127c9565b60006020828403121561280d57600080fd5b5035919050565b6000815180845260005b8181101561283a5760208185018101518683018201520161281e565b506000602082860101526020601f19601f83011685010191505092915050565b60e08152600061286d60e083018a612814565b828103602084015261287f818a612814565b905082810360408401526128938189612814565b60608401979097525050608081019390935260a08301919091526001600160a01b031660c0909101529392505050565b600080604083850312156128d657600080fd5b50508035926020909101359150565b600080604083850312156128f857600080fd5b8235612903816127c9565b91506020830135612913816127c9565b809150509250929050565b60008060008060008060c0878903121561293757600080fd5b86359550602087013567ffffffffffffffff8082111561295657600080fd5b6129628a838b016126a2565b9650604089013591508082111561297857600080fd5b6129848a838b016126a2565b9550606089013591508082111561299a57600080fd5b506129a789828a016126a2565b9350506080870135915060a087013590509295509295509295565b634e487b7160e01b600052603260045260246000fd5b634e487b7160e01b600052601160045260246000fd5b600060018201612a0057612a006129d8565b5060010190565b600060208284031215612a1957600080fd5b5051919050565b600060208284031215612a3257600080fd5b815180151581146115ce57600080fd5b600181811c90821680612a5657607f821691505b602082108103612a7657634e487b7160e01b600052602260045260246000fd5b50919050565b601f821115610f5457600081815260208120601f850160051c81016020861015612aa35750805b601f850160051c820191505b81811015612ac257828155600101612aaf565b505050505050565b815167ffffffffffffffff811115612ae457612ae461268c565b612af881612af28454612a42565b84612a7c565b602080601f831160018114612b2d5760008415612b155750858301515b600019600386901b1c1916600185901b178555612ac2565b600085815260208120601f198616915b82811015612b5c57888601518255948401946001909101908401612b3d565b5085821015612b7a5787850151600019600388901b60f8161c191681555b5050505050600190811b01905550565b60c081526000612b9d60c0830189612814565b8281036020840152612baf8189612814565b90508281036040840152612bc38188612814565b60608401969096525050608081019290925260a0909101529392505050565b600181815b80851115612c1d578160001904821115612c0357612c036129d8565b80851615612c1057918102915b93841c9390800290612be7565b509250929050565b600082612c34575060016116a3565b81612c41575060006116a3565b8160018114612c575760028114612c6157612c7d565b60019150506116a3565b60ff841115612c7257612c726129d8565b50506001821b6116a3565b5060208310610133831016604e8410600b8410161715612ca0575081810a6116a3565b612caa8383612be2565b8060001904821115612cbe57612cbe6129d8565b029392505050565b60006115ce60ff841683612c25565b80820281158282048414176116a3576116a36129d8565b600082612d0957634e487b7160e01b600052601260045260246000fd5b500490565b600080600080600080600060e0888a031215612d2957600080fd5b8751612d34816127c9565b6020890151909750612d45816127c9565b8096505060408801519450606088015193506080880151925060a0880151915060c088015160038110612d7757600080fd5b8091505092959891949750929550565b600060208284031215612d9957600080fd5b815160ff811681146115ce57600080fd5b818103818111156116a3576116a36129d8565b600081612dcc57612dcc6129d8565b506000190190565b60008154612de181612a42565b808552602060018381168015612dfe5760018114612e1857611ce2565b60ff1985168884015283151560051b880183019550611ce2565b866000528260002060005b85811015612e3e5781548a8201860152908301908401612e23565b89018401965050505050505092915050565b60c081526000612e6360c0830189612dd4565b8281036020840152612e758189612dd4565b90508281036040840152612bc38188612dd4565b808201808211156116a3576116a36129d856fea2646970667358221220d6a613763703e845b3b91e6af53f8e5243d8bfa535d3141ac2047c741640a05664736f6c63430008110033",
    "linkReferences": {}
  },
  "methodIdentifiers": {
    "UseReferalLink(address)": "6557b07d",
    "activate(address,address)": "9555c4db",
    "buyTOM(uint256)": "47f5546a",
    "calculatePostingFee(uint256,uint256)": "7f21a48a",
    "calculateTOMAmount(uint256)": "918e3b4c",
    "cancelListing(uint256)": "305a67a8",
    "cancelOrder(uint256)": "514fcac7",
    "claimRewards()": "372500ab",
    "confirmDelivery(uint256)": "fd84cb97",
    "getEscrowAddress()": "122fd48a",
    "getItem(uint256)": "3129e773",
    "getSpentAmount(address)": "4e10efbd",
    "getTokenAddress()": "10fe9ae8",
    "getTomAddress()": "86664124",
    "getUser(uint256)": "b0467deb",
    "isRegistered(address)": "c3c5a547",
    "listItem(string,string,string,uint256,uint256)": "1627eaf2",
    "orderItem(uint256,uint256)": "ce16dcc8",
    "owner()": "8da5cb5b",
    "registerUser(address)": "2199d5cd",
    "renounceOwnership()": "715018a6",
    "transferOwnership(address)": "f2fde38b",
    "updateItem(uint256,string,string,string,uint256,uint256)": "f75b59f4"
  },
  "id": 41
}