{
  "abi": [
    {
      "inputs": [
        {
          "internalType": "address",
          "name": "_marketplace",
          "type": "address"
        }
      ],
      "stateMutability": "nonpayable",
      "type": "constructor"
    },
    {
      "anonymous": false,
      "inputs": [
        {
          "indexed": false,
          "internalType": "uint256",
          "name": "orderId",
          "type": "uint256"
        },
        {
          "indexed": false,
          "internalType": "address",
          "name": "buyer",
          "type": "address"
        },
        {
          "indexed": false,
          "internalType": "uint256",
          "name": "amount",
          "type": "uint256"
        }
      ],
      "name": "FundsLocked",
      "type": "event"
    },
    {
      "anonymous": false,
      "inputs": [
        {
          "indexed": false,
          "internalType": "uint256",
          "name": "orderId",
          "type": "uint256"
        },
        {
          "indexed": false,
          "internalType": "address",
          "name": "buyer",
          "type": "address"
        },
        {
          "indexed": false,
          "internalType": "uint256",
          "name": "amount",
          "type": "uint256"
        }
      ],
      "name": "FundsRefunded",
      "type": "event"
    },
    {
      "anonymous": false,
      "inputs": [
        {
          "indexed": false,
          "internalType": "uint256",
          "name": "orderId",
          "type": "uint256"
        },
        {
          "indexed": false,
          "internalType": "address",
          "name": "seller",
          "type": "address"
        },
        {
          "indexed": false,
          "internalType": "uint256",
          "name": "amount",
          "type": "uint256"
        }
      ],
      "name": "FundsReleased",
      "type": "event"
    },
    {
      "anonymous": false,
      "inputs": [
        {
          "indexed": true,
          "internalType": "address",
          "name": "seller",
          "type": "address"
        },
        {
          "indexed": true,
          "internalType": "address",
          "name": "buyer",
          "type": "address"
        },
        {
          "indexed": true,
          "internalType": "uint256",
          "name": "order",
          "type": "uint256"
        },
        {
          "indexed": false,
          "internalType": "uint256",
          "name": "itemId",
          "type": "uint256"
        },
        {
          "indexed": false,
          "internalType": "uint256",
          "name": "price",
          "type": "uint256"
        },
        {
          "indexed": false,
          "internalType": "uint256",
          "name": "quantity",
          "type": "uint256"
        },
        {
          "indexed": false,
          "internalType": "uint256",
          "name": "rewards",
          "type": "uint256"
        },
        {
          "indexed": false,
          "internalType": "enum Escrow.OrderState",
          "name": "state",
          "type": "uint8"
        }
      ],
      "name": "OrderSent",
      "type": "event"
    },
    {
      "inputs": [
        {
          "internalType": "uint256",
          "name": "orderId",
          "type": "uint256"
        }
      ],
      "name": "getOrder",
      "outputs": [
        {
          "internalType": "address",
          "name": "",
          "type": "address"
        },
        {
          "internalType": "address",
          "name": "",
          "type": "address"
        },
        {
          "internalType": "uint256",
          "name": "",
          "type": "uint256"
        },
        {
          "internalType": "uint256",
          "name": "",
          "type": "uint256"
        },
        {
          "internalType": "uint256",
          "name": "",
          "type": "uint256"
        },
        {
          "internalType": "uint256",
          "name": "",
          "type": "uint256"
        },
        {
          "internalType": "enum Escrow.OrderState",
          "name": "",
          "type": "uint8"
        }
      ],
      "stateMutability": "view",
      "type": "function"
    },
    {
      "inputs": [
        {
          "internalType": "address",
          "name": "seller",
          "type": "address"
        },
        {
          "internalType": "address",
          "name": "buyer",
          "type": "address"
        },
        {
          "internalType": "uint256",
          "name": "itemId",
          "type": "uint256"
        },
        {
          "internalType": "uint256",
          "name": "price",
          "type": "uint256"
        },
        {
          "internalType": "uint256",
          "name": "quantity",
          "type": "uint256"
        },
        {
          "internalType": "uint256",
          "name": "rewards",
          "type": "uint256"
        }
      ],
      "name": "lockFunds",
      "outputs": [
        {
          "internalType": "uint256",
          "name": "",
          "type": "uint256"
        }
      ],
      "stateMutability": "nonpayable",
      "type": "function"
    },
    {
      "inputs": [
        {
          "internalType": "uint256",
          "name": "orderId",
          "type": "uint256"
        },
        {
          "internalType": "address",
          "name": "buyer",
          "type": "address"
        }
      ],
      "name": "refundFunds",
      "outputs": [],
      "stateMutability": "nonpayable",
      "type": "function"
    },
    {
      "inputs": [
        {
          "internalType": "uint256",
          "name": "orderId",
          "type": "uint256"
        },
        {
          "internalType": "address",
          "name": "buyer",
          "type": "address"
        }
      ],
      "name": "releaseFunds",
      "outputs": [],
      "stateMutability": "nonpayable",
      "type": "function"
    }
  ],
  "bytecode": {
    "object": "0x608060405234801561001057600080fd5b50604051610a24380380610a2483398101604081905261002f916100d2565b600280546001600160a01b0319166001600160a01b0383169081179091556040805163021fd35d60e31b815290516310fe9ae8916004808201926020929091908290030181865afa158015610088573d6000803e3d6000fd5b505050506040513d601f19601f820116820180604052508101906100ac91906100d2565b600080546001600160a01b0319166001600160a01b039290921691909117905550610102565b6000602082840312156100e457600080fd5b81516001600160a01b03811681146100fb57600080fd5b9392505050565b610913806101116000396000f3fe608060405234801561001057600080fd5b506004361061004c5760003560e01c80631af23a59146100515780637796992914610066578063a645c3bc14610079578063d09ef2411461009f575b600080fd5b61006461005f3660046106d9565b610110565b005b6100646100743660046106d9565b6102c3565b61008c610087366004610705565b61046a565b6040519081526020015b60405180910390f35b6100fd6100ad36600461075a565b600090815260016020819052604090912080549181015460028201546003830154600484015460058501546006909501546001600160a01b0396871697969094169592949193909260ff90911690565b60405161009697969594939291906107ab565b6002546001600160a01b031633146101435760405162461bcd60e51b815260040161013a906107f8565b60405180910390fd5b6000828152600160208190526040909120908101546001600160a01b038381169116146101825760405162461bcd60e51b815260040161013a90610845565b6000600682015460ff16600281111561019d5761019d610773565b146101e15760405162461bcd60e51b8152602060048201526014602482015273119d5b991cc8185c99481b9bdd081b1bd8dad95960621b604482015260640161013a565b60068101805460ff191660011790556000548154600383015460405163a9059cbb60e01b81526001600160a01b039283166004820152602481019190915291169063a9059cbb906044016020604051808303816000875af115801561024a573d6000803e3d6000fd5b505050506040513d601f19601f8201168201806040525081019061026e919061088a565b5080546003820154604080518681526001600160a01b0390931660208401528201527f6e3c6096795c8298a218b2cfb8bde42726ff7c9a3d27b4d3ba41ab7f74feb5fb906060015b60405180910390a1505050565b6002546001600160a01b031633146102ed5760405162461bcd60e51b815260040161013a906107f8565b6000828152600160208190526040909120908101546001600160a01b0383811691161461032c5760405162461bcd60e51b815260040161013a90610845565b6000600682015460ff16600281111561034757610347610773565b1461038b5760405162461bcd60e51b8152602060048201526014602482015273119d5b991cc8185c99481b9bdd081b1bd8dad95960621b604482015260640161013a565b60068101805460ff191660021790556000546001820154600383015460405163a9059cbb60e01b81526001600160a01b039283166004820152602481019190915291169063a9059cbb906044016020604051808303816000875af11580156103f7573d6000803e3d6000fd5b505050506040513d601f19601f8201168201806040525081019061041b919061088a565b5060018101546003820154604080518681526001600160a01b0390931660208401528201527f80b577b4fc190ab86d963549e29f496afd079c5d81a2480d61217d4b5060a28c906060016102b6565b6002546000906001600160a01b031633146104975760405162461bcd60e51b815260040161013a906107f8565b6040516bffffffffffffffffffffffff1933606090811b8216602084015289901b166034820152426048820152606881018690526000906088016040516020818303038152906040528051906020012060001c90506040518060e00160405280896001600160a01b03168152602001886001600160a01b031681526020018781526020018681526020018581526020018481526020016000600281111561054057610540610773565b9052600082815260016020818152604092839020845181546001600160a01b03199081166001600160a01b0392831617835592860151828501805490941691161790915591830151600280840191909155606084015160038401556080840151600484015560a0840151600584015560c08401516006840180549193909260ff199092169184908111156105d6576105d6610773565b0217905550506000546040516323b872dd60e01b81526001600160a01b038a811660048301523060248301526044820189905290911691506323b872dd906064016020604051808303816000875af1158015610636573d6000803e3d6000fd5b505050506040513d601f19601f8201168201806040525081019061065a919061088a565b5080876001600160a01b0316896001600160a01b03167f2e5ac348688d81c901d4799aff57a8f7bc8366578843f4c8cac1ecca6e43f2278989898960006040516106a89594939291906108b3565b60405180910390a490505b9695505050505050565b80356001600160a01b03811681146106d457600080fd5b919050565b600080604083850312156106ec57600080fd5b823591506106fc602084016106bd565b90509250929050565b60008060008060008060c0878903121561071e57600080fd5b610727876106bd565b9550610735602088016106bd565b95989597505050506040840135936060810135936080820135935060a0909101359150565b60006020828403121561076c57600080fd5b5035919050565b634e487b7160e01b600052602160045260246000fd5b600381106107a757634e487b7160e01b600052602160045260246000fd5b9052565b6001600160a01b0388811682528716602082015260408101869052606081018590526080810184905260a0810183905260e081016107ec60c0830184610789565b98975050505050505050565b6020808252602d908201527f4f6e6c792074686520706172656e7420636f6e74726163742063616e2063616c60408201526c1b081d1a1a5cc81b595d1a1bd9609a1b606082015260800190565b60208082526025908201527f53656e646572206d75737420626520746865206275796572206f662074686973604082015264206974656d60d81b606082015260800190565b60006020828403121561089c57600080fd5b815180151581146108ac57600080fd5b9392505050565b600060a0820190508682528560208301528460408301528360608301526106b3608083018461078956fea26469706673582212203e5c99aaed5eba96127f22fdbec67e7f50c6aefd9f51c9355c271c8b731f472a64736f6c63430008110033",
    "linkReferences": {}
  },
  "methodIdentifiers": {
    "getOrder(uint256)": "d09ef241",
    "lockFunds(address,address,uint256,uint256,uint256,uint256)": "a645c3bc",
    "refundFunds(uint256,address)": "77969929",
    "releaseFunds(uint256,address)": "1af23a59"
  },
  "id": 40
}